:100580007580FFE5A0541F44E0F5A053A01F7580BF
:10059000FFE5A0541F44C0F5A053A01FE4F580E57B
:1005A000A0541F44A0F5A053A01F7580FFE5A054E0
:0905B0001F4480F5A053A01F2296
:1005FE0012058012022B1204B61204B61204B612A1
:0A060E0004B61204B61204B680E927
:0B066100C0F9A4B0999282F88090FFCD
:10064C0008100A0A0A0A0A0A0A0A08080A0A0A0AFE
:04065C000A0A0A0A72
:10022B001205418F1B8E1A8D198C18E4FFFE7DC8A9
:10023B007C42AB1BAA1AA919A8181200031201477A
:10024B00AB07AA06D3EB9428EA940A40057580FE07
:10025B0080037580FFE5A0541F4480F5A053A01FB9
:10026B00C3EB9410EA942740687C277D10AF03AE54
:10027B00021201C88F0B7C277D10AF03AE02120157
:10028B00C87E037FE8CFCDCFCECCCE1201C88F0C6A
:10029B007C037DE8AF03AE021201C87E007F64CF02
:1002AB00CDCFCECCCE1201C88F0D7C007D64AF03B9
:1002BB00AE021201C87E007F0ACFCDCFCECCCE12BC
:1002CB0001C88F0E7C007D0AAF03AE021201C88DF0
:1002DB000FC3EB94E8EA94034059EB9410EA94278C
:1002EB005051750B0A7C037DE8AF03AE021201C8B7
:1002FB008F0C7C037DE8AF03AE021201C87E007F3A
:10030B0064CFCDCFCECCCE1201C88F0D7C007D64D7
:10031B00AF03AE021201C87E007F0ACFCDCFCECC89
:10032B00CE1201C88F0E7C007D0AAF03AE02120104
:10033B00C88D0FC3EB9464EA94004042EB94E8EA57
:10034B009403503A750B0A750C0A7C007D64AF035D
:10035B00AE021201C88F0D7C007D64AF03AE02129A
:10036B0001C87E007F0ACFCDCFCECCCE1201C88F75
:10037B000E7C007D0AAF03AE021201C88D0FC3EBDA
:10038B00940AEA9400402AEB9464EA940050227594
:10039B000B0A750C0AE4F50DFC7D0AAF03AE0212D5
:1003AB0001C88F0E7C007D0AAF03AE021201C88D0F
:1003BB000FC3EB940AEA9400402AEB9464EA94008E
:1003CB005022750B0A750C0AE4F50DFC7D0AAF0380
:1003DB00AE021201C88F0E7C007D0AAF03AE021273
:1003EB0001C88D0FC3EB940AEA9400401FEB946491
:1003FB00EA94005017750B0A750C0AE4F50DF50E0F
:10040B00AE02AF03FC7D0A1201C88D0FE4FF740826
:0E041B002FF8E6FE74102FF8A6060FBF08F0AB
:0104290022B0
:1004B600E4F519F5187580FFE5A0541F44E0F5A092
:1004C60053A01F7580FFE5A0541F44C0F5A053A09C
:1004D6001FAF19A8077401088002C333D8FCF58042
:1004E600E5A0541F44C0F5A053A01F74102518F8AA
:1004F600E690066193F51AE518B40503531A7F854D
:100506001A80E5A0541F44E0F5A053A01F05191258
:10051600066C0518E518C39408409AE4F519758029
:10052600FFE5A0541F44E0F5A053A01F7580FFE52A
:0A053600A0541F44C0F5A053A01FFD
:010540002298
:02067300FFFE88
:100541001205B97FCC1205E07F441205E07F207EC1
:100551000312061C1205B97FCC1205E07FBE1205FD
:10056100E01206328F1C120632EFFEE51CFFFDACD5
:0F05710006E412010EE4FBFA7980783D020003E4
:040618007F057E00DC
:10061C00EF1FAA0670011E4A600BE4FDEDC3940C9B
:05062C0050EE0D80F707
:0106310022A6
:0205E000A90769
:1005E200E4FBC294E9139294120618D294E9C3135D
:0C05F200F90BBB08ED7F057E0002061C23
:10063200E4FBC294ECC313FCD294309403430480D1
:090642001206180BBB08EBAF0413
:01064B00228C
:1005B900C200D2947F0C7E0012061CC2947F507E2A
:1005C9000012061CD2947F0A7E0012061CA2949285
:0605D90000120618A2004A
:0105DF0022F9
:06066C0000007F75DFFEB7
:010672002265
:10000300EC4D6011E8497017ED33EC3304600DE4F7
:10001300FCFFFEFD22E933E8330470F80201B3125A
:10002300017E58046009E4CC24815006285009025B
:1000330001BD2840030201BAC0E0EB4A7044B98015
:1000430006D0E0FB0201A9EF4E701CBD8008EBFF58
:10005300EAFEE9FD80EBE98DF0A4FEE5F00200EC99
:10006300E9CDF9EAFEEBFFEF89F0A4FCE5F0CE89D8
:10007300F0A42EFFE435F0CD89F0A42DFEE435F095
:100083008067EF4E7005BD80D780C3EF8BF0A4ACC3
:10009300F0EE8BF0A42CFCE435F0F8EF8AF0A42CFE
:1000A300E5F038FCE433CB8DF0A42CFCE5F03BF811
:1000B300EE8AF0A42CFCE5F038F8E433CF89F0A401
:1000C3002CFCE5F038CF3400CE89F0A42FFFE5F007
:1000D3003EFEE433C98DF0A42EFEE5F039CD8AF05F
:1000E300A42FFFE5F03EFEE43DFD33D0E0FB5007D7
:1000F3000BBB000F0201BDEC2CFCEF33FFEE33FE14
:06010300ED33FD02019541
:1001090075F020800E75F010800575F0087D007E71
:10011900007F003392D530D50312021DEC33401015
:10012900EF33FFEE33FEED33FDEC33FCD5F0ED227A
:0E013900E5F0247EA2D513CC92E7CDCEFF22B6
:10014700EDD2E7CD33EC3392D524814006E4FFFEB0
:10015700FDFC22FCE4CFCECDCC24E0501174FF800F
:10016700EDC3CC13CCCD13CDCE13CECF13CF0470AC
:07017700F030D5DE02021D8D
:10017E00E9D2E7C933E833F892D5EDD2E7CD33ECC7
:07018E0033FC5002B2D52240
:10019500EC30E7100FBF000C0EBE00080DBD0004CB
:1001A5000BEB6014A2D5EB13FCED92E7FD2274FF77
:1001B500FCFDFEFF22E480F8A2D574FF13FC7D80D0
:0301C500E480EFE4
:0300000002042ACD
:0C042A00787FE4F6D8FD75812002047193
:1001C800BC000BBE0029EF8DF084FFADF022E4CC1B
:1001D800F875F008EF2FFFEE33FEEC33FCEE9DECE4
:1001E800984005FCEE9DFE0FD5F0E9E4CEFD22ED2A
:1001F800F8F5F0EE8420D21CFEADF075F008EF2F74
:10020800FFED33FD4007985006D5F0F222C398FD64
:050218000FD5F0EA2201
:0E021D00C3E49FFFE49EFEE49DFDE49CFC22F2
:100436000205FEE493A3F8E493A34003F68001F2D9
:1004460008DFF48029E493A3F85407240CC8C333C7
:10045600C4540F4420C8834004F456800146F6DF96
:10046600E4800B010204081020408090064CE47ED4
:10047600019360BCA3FF543F30E509541FFEE4938B
:10048600A360010ECF54C025E060A840B8E493A352
:10049600FAE493A3F8E493A3C8C582C8CAC583CA7D
:1004A600F0A3C8C582C8CAC583CADFE9DEE780BE35
:010660000099
:00000001FF
