:1004D5007580FFE5A0541F44E0F5A053A01F75806B
:1004E500FFE5A0541F44C0F5A053A01FE4F580E527
:1004F500A0541F44A0F5A053A01F7580FFE5A0548C
:090505001F4480F5A053A01F2241
:100589001204D51202CB1204001204001204001244
:07059900040012040080ECD5
:0C05D600C0F9A4B0999282F88090C1FF97
:1005A00008080A0B0B0B0B0B0B0B08100A0B0B0BA1
:0405B0000B0B0B0B1B
:1002CB0012048B8F1B8E1A8D198C18E4FFFE7DFA8E
:1002DB007C43AB1BAA1AA919A8181200031201E739
:1002EB00AB07AA06C3EB9464EA940040207C007D24
:1002FB00641202688F0D7C007D64AF03AE021202A4
:10030B00687E007F0ACFCDCFCECCCE801BC3EB94C3
:10031B000AEA94004021EB9464EA94005019E4F546
:10032B000DFC7D0AAF03AE021202688F0E7C007DBE
:10033B000AAF03AE02801AC3EA94004019EB940A89
:10034B00EA94005011E4F50DF50EAE02AF03FC7DFF
:10035B000A1202688D0FE4FF74082FF8E6FE741082
:08036B002FF8A6060FBF08F0F1
:010373002267
:10040000E4F51AF5187580FFE5A0541F44E0F5A047
:1004100053A01F7580FFE5A0541F44C0F5A053A052
:100420001FAF1AA8077401088002C333D8FCF580F7
:10043000E5A0541F44C0F5A053A01F74102518F860
:10044000E69005D693F519E518B4050353197F8591
:100450001980E5A0541F44E0F5A053A01F051A120F
:1004600005EE0518E518C39408409AE4F51A75805E
:10047000FFE5A0541F44E0F5A053A01F7580FFE5E1
:0A048000A0541F44C0F5A053A01FB4
:01048A00224F
:10048B001205C77F9012050E1205B57F0312050EDC
:10049B001205B51205E21205C77F9112050E120562
:1004AB00B512053AAC07E41201B38F1F8E1E8D1DDA
:1004BB008C1C1205B51205E2E4FBFA797F7843AF89
:0A04CB001FAE1EAD1DAC1C02010C9B
:04055700D2A07F05AA
:10055B00000000000000000000000000000000AEE2
:06056B00071FEE70EB22F9
:0F05C700D2A1120557C2A17F0512055BC2A02267
:0C05E200C2A1120557D2A17F0502055BE3
:02050E00AD0737
:10051000E4FCC2A07F0512055BED30E704D2A180A8
:1005200002C2A17F0512055BD2A0ED25E0FD7F058B
:0905300012055B0CBC08DBC2A043
:01053900229F
:10053A00E4FC120557ED25E0FD30A103430501C295
:0C054A00A07F0512055B0CBC08E8AF05A3
:010556002282
:1005B500120557A2A1E433FDC2A07F0512055BAF6A
:0105C5000530
:0105C6002212
:10057100C2A0EF24FF92A17F0512055B120557C2AD
:08058100A0D2A17F0502055B79
:0605EE0000007F93DFFE18
:0105F40022E4
:10000300EC4D6011E8497017ED33EC3304600DE4F7
:10001300FCFFFEFD22E933E8330470F802025312B9
:10002300021E58046009E4CC2481500628500902BA
:10003300025D28400302025AC0E0EB4A7044B980D3
:1000430006D0E0FB020249EF4E701CBD8008EBFFB7
:10005300EAFEE9FD80EBE98DF0A4FEE5F00200EC99
:10006300E9CDF9EAFEEBFFEF89F0A4FCE5F0CE89D8
:10007300F0A42EFFE435F0CD89F0A42DFEE435F095
:100083008067EF4E7005BD80D780C3EF8BF0A4ACC3
:10009300F0EE8BF0A42CFCE435F0F8EF8AF0A42CFE
:1000A300E5F038FCE433CB8DF0A42CFCE5F03BF811
:1000B300EE8AF0A42CFCE5F038F8E433CF89F0A401
:1000C3002CFCE5F038CF3400CE89F0A42FFFE5F007
:1000D3003EFEE433C98DF0A42EFEE5F039CD8AF05F
:1000E300A42FFFE5F03EFEE43DFD33D0E0FB5007D7
:1000F3000BBB000F02025DEC2CFCEF33FFEE33FE73
:06010300ED33FD020235A0
:1001090002025DEC5D046005E859047003020253C4
:1001190012021E580460F6EC4860F2EC7004FDFE11
:10012900FF22C860DB2481C85009C39860025006C9
:1001390002025A9850CAF582E9294B4A7005AB82E6
:1001490002024975F0007C1A7880C3EF9BEE9AEDA4
:1001590099400DC3EF9BFFEE9AFEED99FDE842F041
:10016900DC23ACF0D0E0FFD0E0FED0E0FDAB822094
:10017900E7101BEB60BAEC2CFCEF33FFEE33FEED1E
:1001890033FD020235E803F830E705C0F075F000E9
:10019900EF2FFFEE33FEED33FD40B830E7C280AA02
:1001A90075F020800E75F010800575F0087D007ED1
:1001B900007F003392D530D5031202BDEC334010D5
:1001C900EF33FFEE33FEED33FDEC33FCD5F0ED22DA
:0E01D900E5F0247EA2D513CC92E7CDCEFF2216
:1001E700EDD2E7CD33EC3392D524814006E4FFFE10
:1001F700FDFC22FCE4CFCECDCC24E0501174FF806F
:10020700EDC3CC13CCCD13CDCE13CECF13CF04700B
:07021700F030D5DE0202BD4C
:10021E00E9D2E7C933E833F892D5EDD2E7CD33EC26
:07022E0033FC5002B2D5229F
:10023500EC30E7100FBF000C0EBE00080DBD00042A
:100245000BEB6014A2D5EB13FCED92E7FD2274FFD6
:10025500FCFDFEFF22E480F8A2D574FF13FC7D802F
:03026500E480EF43
:0300000002037484
:0C037400787FE4F6D8FD75811F0203BB02
:10026800BC000BBE0029EF8DF084FFADF022E4CC7A
:10027800F875F008EF2FFFEE33FEEC33FCEE9DEC43
:10028800984005FCEE9DFE0FD5F0E9E4CEFD22ED89
:10029800F8F5F0EE8420D21CFEADF075F008EF2FD3
:1002A800FFED33FD4007985006D5F0F222C398FDC4
:0502B8000FD5F0EA2261
:0E02BD00C3E49FFFE49EFEE49DFDE49CFC2252
:10038000020589E493A3F8E493A34003F68001F205
:1003900008DFF48029E493A3F85407240CC8C3337E
:1003A000C4540F4420C8834004F456800146F6DF4D
:1003B000E4800B01020408102040809005A0E47E38
:1003C000019360BCA3FF543F30E509541FFEE49342
:1003D000A360010ECF54C025E060A840B8E493A309
:1003E000FAE493A3F8E493A3C8C582C8CAC583CA34
:1003F000F0A3C8C582C8CAC583CADFE9DEE780BEEC
:0105B4000046
:00000001FF
