:100476001207E61204F47580FFE5A0541F44E0F568
:10048600A053A01F7580FFE5A0541F44C0F5A053DC
:10049600A01F7580FFE5A0541F4480F5A053A01F40
:0F04A600E4F580E5A0541F44A0F5A053A01F2249
:0807DE0012047612000380FBF7
:0E076900C0F9A4B0999282F88090BFC686FFB6
:1004B500C100012900013A0008210D0D0D0D0D0D9A
:1004C5000D0D08320B0D0D0D0D0D0D0D082A0C0D22
:0604D5000D0D0D0A0D0DD6
:1007490075320B7F077833740DF608DFFCE4F53A50
:01075900227D
:10062D001204228B138A148915E4FFAB13AA14A9A3
:10063D00158F827583001202F0FE74212FF8A60625
:04064D000FBF08E7EC
:010651002286
:10021600120150E4F513F5142001030202D6EFC3D0
:1002260094004023EFD39409501DE53AC39404503B
:10023600167E0474332EF8E6FD74322EF8A6050EEB
:10024600BE08F08F39053AE53A640460030202D627
:10025600AF36FE7C037DE812032FAC06AD07E5370B
:1002660075F064A42DFDEC35F0FCE53875F00AA4B4
:100276002DFFE5F03CFE7C00EF2539F514EC3EF54C
:1002860013D3E5149529E51394004044D2001204D3
:1002960022AF01AB15AA16A917EF12031DAB15AABB
:1002A60016A9179000011202F0FF1202D775F00A84
:1002B600A42FFF9000031202F075F00AA4FE90002E
:1002C600041202F02EFDAB14AA131205318514296F
:0102D6002205
:100652001205D31202D7F52D9000011202F0F52EE9
:10066200752F0A9000021202F0F530900003120278
:03067200F0F5316F
:010675002262
:10000300E4F508F5091206048F127F08780A740DC7
:10001300F608DFFC7F08E5126401702612062DE462
:10002300FF74212FF8E6FE740A2FF8A6060FBF0807
:10003300F03000059007988003900792740193FEB7
:100043008056E51264027026120216E4FF74322F02
:10005300F8E6FE740A2FF8A6060FBF08F030000575
:1000630090079A8003900794740193FE802AE51207
:1000730064037033120652E4FF742A2FF8E6FE7409
:100083000A2FF8A6060FBF08F030000590079C80E2
:1000930003900796740193FE8E80E5A0541F44805D
:1000A300F5A053A01F8030E5126404702A1207499B
:1000B300E4FF74322FF8E6FE740A2FF8A6060FBF8A
:1000C30008F0900794740193F580E5A0541F4480D1
:1000D300F5A053A01FC200E4FF7580FFE5A0541FE5
:1000E30044E0F5A053A01FE4F580E5A0541F44C0ED
:1000F300F5A053A01FAE08A8067401088002C333FD
:10010300D8FCF580E5A0541F44C0F5A053A01F748C
:100113000A2FF8E690076993F509F580E5A0541FC7
:1001230044E0F5A053A01F05080FBF08ACE4F50891
:100133007580FFE5A0541F44E0F5A053A01FE4F52C
:0C01430080E5A0541F44C0F5A053A01F8D
:01014F00228D
:0C07920000FE00FD00FB00F600F500F387
:0C079E00000102030405060708090A0B0D
:0804DB00C101014B01014901BF
:100150007518FFC2B1D2B2D2B320C40B1207CC3093
:10016000C4FD90079E802820C20B1207CC30C2FD30
:1001700090079F801A20B50B1207CC30B5FD900771
:10018000A0800C20B40D1207CC30B4FD9007A1E480
:1001900093F518D2B1C2B2D2B320C40B1207CC303F
:1001A000C4FD9007A8802820C20B1207CC30C2FDE6
:1001B0009007A2801A20B50B1207CC30B5FD90072E
:1001C000A3800C20B40D1207CC30B4FD9007A4E43A
:1001D00093F518D2B1D2B2C2B320C40B1207CC30FF
:1001E000C4FD9007A9802820C20B1207CC30C2FDA5
:1001F0009007A5801A20B50B1207CC30B5FD9007EB
:10020000A6800C20B40D1207CC30B4FD9007A7E4F3
:0502100093F518AF1882
:0102150022C6
:0D078500E54BD394034003754B01AF4B22AD
:0307ED007F042264
:10060400120150AE07BE0B15054B1207858F49E545
:1006140049B40204D2018002C201AF4922BE0A06D3
:080624001207ED8F4A22AF49D5
:01062C0022AB
:0E07770080828486888A8C81838587898B8D19
:0804E3000643020300090509AC
:10073600E4FEC297EF1392A3EFC313FFD2970EBE48
:0207460008F0B9
:01074800228E
:10072200C29300C29700D29300120736AF05120798
:0407320036C2932216
:10056B00E4FDC29300C29700D29300120736E4FF5A
:10057B00C297EDC313FD30A303430580D2970FBF82
:10058B0008EEC29300C293C29700D29700C2A30099
:05059B00D2A300AF0532
:0105A0002238
:100422007BFF7A07797EE4FC1202D7FF12056B7418
:10043200182CF8A607740129F9E43AFA0CBC03E86F
:10044200E51AC4540FF53BE51A540FF53C753D0A05
:10045200E519C4540FF53EE519540FF53F75400AEE
:10046200E518C4540FF541E518540FF5427B007AA4
:0304720000793BD3
:010475002264
:1004F400E4FD7F8E120722900777E493FFE547C45B
:1005040054F04548FD120722A3E493FFE545C45483
:10051400F04546FD120722A3E493FFE543C454F0DB
:0D0524004544FD1207227D807F8E020722D4
:0E075A0000007F177ECD7D78DDFEDEFCDFFA2D
:01076800226E
:0807CC007F757EB8DEFEDFFC44
:0107D4002202
:0804EB00041C00000000C10226
:0B07B600D294D29500C29400C295229C
:0907D500C294D29500D2940022D6
:0B07C100C29400D29500C295D2942291
:08070B001207B67FA01206766A
:0E071300D29400D29500A2A39203C295A20335
:0107210022B5
:10067600E4FEC29500EF5480C4131313540124FF03
:100686009294EF25E0FF00D295000EBE08E4C295D5
:010696002241
:1006B500E4FFC295D294FE00D29500EF25E0FFA29B
:0C06C500A3E4334FFFC295000EBE08EB0B
:0106D1002206
:0707E600D29500D29400221D
:1006D200AC05AB0712070BAF03120676120713AF76
:0D06E200041206761207131207D50207CC8A
:02069700AC07AE
:1006990012070BAF041206761207131207B67FA1D1
:0C06A9001206761207131206B50207D5E0
:040531008F188D1979
:100535007C007D64AF03AE021203418F1AAE02AF99
:10054500037C007D641203418D1BAD18E4FF120688
:10055500D2AD197F011206D2AD1A7F021206D2ADB5
:060565001B7F030206D219
:1006EF007F02120697AB077F03120697AD07EB75D4
:0B06FF00F064A47C002DFFEC35F0FE41
:01070A0022CC
:0305A1002002280D
:1005A4001204228B4C8A4D894E1202D7F51C9000FE
:1005B400011202F0F51D9000031202F0F51E9000E6
:0805C400041202F0F51FD2023F
:0705CC007B007A00791C227C
:1005D300E4FF120697AB077F01120697EB75F00A4B
:1005E30084F51CEB75F00A8485F01DEF75F00A8421
:1005F300F51EEF75F00A8485F01F7B007A00791CE5
:0106030022D4
:0C07AA00C202E4F51CF51DF51EF51F222F
:0300000002039662
:0C039600787FE4F6D8FD75814E0203DD8F
:1002D700BB010689828A83E0225002E722BBFE0225
:0902E700E32289828A83E4932258
:1002F000BB010CE58229F582E5833AF583E02250C3
:1003000006E92582F8E622BBFE06E92582F8E2220C
:0D031000E58229F582E5833AF583E4932226
:10031D00BB010689828A83F0225002F722BBFE01BF
:02032D00F322B9
:10032F00EF8DF0A4A8F0CF8CF0A428CE8DF0A42EE2
:02033F00FE229C
:10034100BC000BBE0029EF8DF084FFADF022E4CCA0
:10035100F875F008EF2FFFEE33FEEC33FCEE9DEC69
:10036100984005FCEE9DFE0FD5F0E9E4CEFD22EDAF
:10037100F8F5F0EE8420D21CFEADF075F008EF2FF9
:10038100FFED33FD4007985006D5F0F222C398FDEA
:050391000FD5F0EA2287
:1003A2000207DEE493A3F8E493A34003F68001F28C
:1003B20008DFF48029E493A3F85407240CC8C3335C
:1003C200C4540F4420C8834004F456800146F6DF2B
:1003D200E4800B01020408102040809004B5E47E02
:1003E200019360BCA3FF543F30E509541FFEE49320
:1003F200A360010ECF54C025E060A840B8E493A3E7
:10040200FAE493A3F8E493A3C8C582C8CAC583CA11
:10041200F0A3C8C582C8CAC583CADFE9DEE780BEC9
:0104F3000008
:00000001FF
