:10050C007580FFE5A0541F44E0F5A053A01F758033
:10051C00FFE5A0541F44C0F5A053A01FE4F580E5EF
:10052C00A0541F44A0F5A053A01F7580FFE5A05454
:09053C001F4480F5A053A01F220A
:10048C0012050C12054512022B1204011204011262
:10049C0004011204011204011204011204011204D9
:1004AC0001120401120401120401120401120401CC
:1004BC00120401120401120401120401120401803D
:0104CC00C26D
:0C061E00C0F9A4B0999282F88090C6FF49
:1005EF0008120B0B0B0B0B0B0B0A02082710080A38
:0805FF000B0B0B0B0B0B0B0A9D
:100545001204CD8F248E238D228C21E4FFFE7D2085
:100555007C41AB24AA23A922A8211200031201473A
:100565008E258F26120608BF0106852508852609D2
:010575002263
:10022B001204CD8F248E238D228C21E4FFFE7D20A2
:10023B007C41AB24AA23A922A82112000312014757
:10024B00AB07AA06D3EB9509EA9508400590064241
:10025B008003900641E493F580E5A0541F4480F59C
:10026B00A053A01FC3EB94E8EA9403404E7C037D9C
:10027B00E8AF03AE021201C88F0D7C037DE8AF031C
:10028B00AE021201C87E007F64CFCDCFCECCCE1292
:10029B0001C88F0E7C007D64AF03AE021201C87ED5
:1002AB00007F0ACFCDCFCECCCE1201C88F0F7C00F2
:1002BB007D0AAF03AE021201C88D10C3EB9464EA42
:1002CB009400403FEB94E8EA94035037750D0B7C98
:1002DB00007D64AF03AE021201C88F0E7C007D64FB
:1002EB00AF03AE021201C87E007F0ACFCDCFCECCBA
:1002FB00CE1201C88F0F7C007D0AAF03AE02120134
:10030B00C88D10C3EB940AEA94004028EB9464EA7E
:10031B0094005020750D0B750E0B7C007D0AAF03FE
:10032B00AE021201C88F0F7C007D0AAF03AE021222
:10033B0001C88D10C3EA9400401DEB940AEA9400A7
:10034B005015750D0B750E0BE4F50FAE02AF03FCDC
:10035B007D0A1201C88D10E4FF740A2FF8E6FE74B3
:09036B00122FF8A6060FBF08F0DE
:010374002266
:10040100E4F523F5217580FFE5A0541F44E0F5A034
:1004110053A01F7580FFE5A0541F44C0F5A053A051
:100421001FAF23A8077401088002C333D8FCF580ED
:10043100E5A0541F44C0F5A053A01F74122521F854
:10044100E690061E93F522E521B4050353227F852C
:100451002280E5A0541F44E0F5A053A01F052312FC
:1004610006330521E521C39408409AE4F5237580FC
:10047100FFE5A0541F44E0F5A053A01F7580FFE5E0
:0A048100A0541F44C0F5A053A01FB3
:01048B00224E
:10060800E4F527C2B420B30B12062A20B3057527D8
:050618000180F8AF278E
:01061D0022BA
:02064100FFFEBA
:1004CD001205767FCC12059D7F4412059D7F207EFF
:1004DD00031205BF1205767FCC12059D7FBE120556
:1004ED009D1205D58F271205D5EFFEE527FFFDAC33
:0F04FD0006E412010EE4FBFA7980783D02000359
:0405BB007F057E003A
:1005BF00EF1FAA0670011E4A600BE4FDEDC3940CF9
:0505CF0050EE0D80F765
:0105D4002204
:02059D00A907AC
:10059F00E4FBC294E91392941205BBD294E9C313FE
:0C05AF00F90BBB08ED7F057E000205BFC4
:1005D500E4FBC294ECC313FCD2943094034304802F
:0905E5001205BB0BBB08EBAF04CF
:0105EE0022EA
:10057600C200D2947F0C7E001205BFC2947F507ECB
:10058600001205BFD2947F0A7E001205BFA2949284
:06059600001205BBA200EB
:01059C00223C
:0606330000007F75DFFEF0
:01063900229E
:08062A007F757EB8DEFEDFFCE7
:0106320022A5
:06063A0000007F1BDFFE43
:010640002297
:10000300EC4D6011E8497017ED33EC3304600DE4F7
:10001300FCFFFEFD22E933E8330470F80201B3125A
:10002300017E58046009E4CC24815006285009025B
:1000330001BD2840030201BAC0E0EB4A7044B98015
:1000430006D0E0FB0201A9EF4E701CBD8008EBFF58
:10005300EAFEE9FD80EBE98DF0A4FEE5F00200EC99
:10006300E9CDF9EAFEEBFFEF89F0A4FCE5F0CE89D8
:10007300F0A42EFFE435F0CD89F0A42DFEE435F095
:100083008067EF4E7005BD80D780C3EF8BF0A4ACC3
:10009300F0EE8BF0A42CFCE435F0F8EF8AF0A42CFE
:1000A300E5F038FCE433CB8DF0A42CFCE5F03BF811
:1000B300EE8AF0A42CFCE5F038F8E433CF89F0A401
:1000C3002CFCE5F038CF3400CE89F0A42FFFE5F007
:1000D3003EFEE433C98DF0A42EFEE5F039CD8AF05F
:1000E300A42FFFE5F03EFEE43DFD33D0E0FB5007D7
:1000F3000BBB000F0201BDEC2CFCEF33FFEE33FE14
:06010300ED33FD02019541
:1001090075F020800E75F010800575F0087D007E71
:10011900007F003392D530D50312021DEC33401015
:10012900EF33FFEE33FEED33FDEC33FCD5F0ED227A
:0E013900E5F0247EA2D513CC92E7CDCEFF22B6
:10014700EDD2E7CD33EC3392D524814006E4FFFEB0
:10015700FDFC22FCE4CFCECDCC24E0501174FF800F
:10016700EDC3CC13CCCD13CDCE13CECF13CF0470AC
:07017700F030D5DE02021D8D
:10017E00E9D2E7C933E833F892D5EDD2E7CD33ECC7
:07018E0033FC5002B2D52240
:10019500EC30E7100FBF000C0EBE00080DBD0004CB
:1001A5000BEB6014A2D5EB13FCED92E7FD2274FF77
:1001B500FCFDFEFF22E480F8A2D574FF13FC7D80D0
:0301C500E480EFE4
:0300000002037583
:0C037500787FE4F6D8FD7581270203BCF8
:1001C800BC000BBE0029EF8DF084FFADF022E4CC1B
:1001D800F875F008EF2FFFEE33FEEC33FCEE9DECE4
:1001E800984005FCEE9DFE0FD5F0E9E4CEFD22ED2A
:1001F800F8F5F0EE8420D21CFEADF075F008EF2F74
:10020800FFED33FD4007985006D5F0F222C398FD64
:050218000FD5F0EA2201
:0E021D00C3E49FFFE49EFEE49DFDE49CFC22F2
:1003810002048CE493A3F8E493A34003F68001F202
:1003910008DFF48029E493A3F85407240CC8C3337D
:1003A100C4540F4420C8834004F456800146F6DF4C
:1003B100E4800B01020408102040809005EFE47EE8
:1003C100019360BCA3FF543F30E509541FFEE49341
:1003D100A360010ECF54C025E060A840B8E493A308
:1003E100FAE493A3F8E493A3C8C582C8CAC583CA33
:1003F100F0A3C8C582C8CAC583CADFE9DEE780BEEB
:0106070000F2
:00000001FF
