:1007EF007580FFE5A0541F44E0F5A053A01F75804E
:1007FF00FFE5A0541F44C0F5A053A01F7580FFE56F
:10080F00A0541F4480F5A053A01FE4F580E5A05429
:10081F001F44A0F5A053A01FE4F55112088E020843
:01082F00BB0D
:1008D0001207EF1208E41206721203A8120830126F
:0408E000060580EF9A
:0406D90002550000C6
:10073F00E4F552F55375D901F5D8F5F9F5E9F55406
:10074F00D290120910C2901209100554E554C394A7
:10075F000840EDD2DE309107E5F9D3944040F6C260
:10076F00DEE5F9D394404005C2DF7F0022AFF9EFF9
:10077F00ADE9F552EDF553AC52EC1201197B047A49
:0B078F00E7798C783C12000E1201523A
:01079A00223C
:1008E400E54C64C7454B700812073F7555008F5699
:0108F40022E1
:0706DD00015100024F001E55
:10079B00E4F553C2B2D2B320C20B1208F520C20546
:1007AB0075530180F8D2B2C2B320C40B1208F520E6
:1007BB00C40575530280F820C20B1208F520C20540
:1007CB0075530380F820B50B1208F520B50575534A
:1007DB000480F820B40B1208F520B405755305807E
:0307EB00F8AF5311
:0107EE0022E8
:1006720012079B8F52E552B40108E55120E00312A4
:100682000285E552B40207E551045401F551E552E1
:10069200B4030BE55120E00685554F855650E552CF
:1006A200B40410E55130E00B740A2550F550E435DE
:1006B2004FF54FE552B4051EE55120E019C3E55050
:1006C200940AE54F64809480400C74F62550F550EE
:0606D20074FF354FF54FE7
:0106D80022FF
:1006E4000D21000000000000000000000000000ECA
:1006F4002E00000000000000000000000000000FB9
:100704003C000000000000000000000000000000A9
:10088E00759850438E40538EFE53890F758BC775E6
:07089E008DFEC2ABD28E22D9
:1008A5001201D36010F5993099FDC299740129F9A7
:0508B500E43AFA80EBBB
:0108BA00221B
:10028500C3E55564809480403EE556940AE555647F
:1002950080948050327521447522697523737524C5
:1002A5007475256175266E75276375286575293AF8
:1002B500E5562430F52A752B63752C6DE4F52DFB79
:1002C5007A0079211208A5C3E556940AE55564809C
:1002D50094804058E5569464E55564809480504C6C
:1002E500752E44752F697530737531747532617566
:1002F500336E75346375356575363AAE55AF567CD4
:10030500007D0A1201ECEF2430F537AE55AF567C6F
:10031500007D0A1201ECED2430F538753963753A24
:100325006DE4F53BFB7A00792E1208A5C3E55694DA
:1003350064E555648094804069753C44753D6975F4
:100345003E73753F7475406175416E7542637543C3
:100355006575443AAE55AF567C007D641201ECEFED
:100365002430F545AE55AF567C007D641201EC7E18
:10037500007F0ACFCDCFCECCCE1201ECEF2430F5E5
:1003850046AE55AF567C007D0A1201ECED2430F5E2
:100395004775486375496DE4F54AFB7A00793C1267
:0303A50008A52286
:04071400C100C1015E
:1003A800E55120E04ED3E5569550E54F6480F8E5D9
:1003B80055648098402FE54E6403454D7035200004
:1003C800127580FAE5A0541F4480F5A053A01FD2EF
:1003D8000080207580FEE5A0541F4480F5A053A03E
:1003E8001FC200800E7580FEE5A0541F4480F5A052
:1003F80053A01FE55130E04CD3E5569550E54F64C6
:1004080080F8E555648098402DE54E6403454D70AD
:10041800332001117580F9E5A0541F4480F5A053DD
:10042800A01FD201227580FDE5A0541F4480F5A0CD
:1004380053A01FC201227580FDE5A0541F4480F51A
:05044800A053A01F22DB
:0C090400C0F9A4B0999282F88090C1FF65
:1007180008100A010B0B0B0B0B0B08180A020B0B2A
:0E0728000B0B0B0B08080B0B0B0B0B0B0B0B2F
:10044D00C3E555648094804015E556940AE55564DE
:10045D00809480500975150B75160B855617C3E5DD
:10046D0056940AE555648094804029E5569464E5D8
:10047D005564809480501D75150BAE55AF567C009C
:10048D007D0A1201EC8F16AE55AF567C007D0A1217
:10049D0001EC8D17C3E5569464E555648094804056
:1004AD0034AE55AF567C007D641201EC8F15AE5500
:1004BD00AF567C007D641201EC7E007F0ACFCDCF5C
:1004CD00CECCCE1201EC8F16AE55AF567C007D0A08
:0604DD001201EC8D172254
:1004E300C3E54F648094804015E550940AE54F645A
:1004F3008094805009751D0B751E0B85501FC3E535
:1005030050940AE54F648094804029E5509464E553
:100513004F64809480501D751D0BAE4FAF507C000F
:100523007D0A1201EC8F1EAE4FAF507C007D0A1284
:1005330001EC8D1FC3E5509464E54F6480948040C3
:1005430034AE4FAF507C007D641201EC8F1DAE4F73
:10055300AF507C007D641201EC7E007F0ACFCDCFCB
:10056300CECCCE1201EC8F1EAE4FAF507C007D0A75
:060573001201EC8D1F22B5
:10083000E55120E01512044DE4FB74102BF8E6FF9F
:1008400074082BF8A6070BBB08F0E55130E0151231
:1008500004E3E4FB74182BF8E6FF74082BF8A607F2
:040860000BBB08F0D6
:010864002271
:10060500E4F5527580FFE5A0541F44E0F5A053A022
:100615001FAF52A8077401088002C333D8FCF580C8
:10062500E5A0541F44C0F5A053A01F74082552F837
:10063500E690090493F553F580E5A0541F44E0F5D1
:10064500A053A01F1200030552E552C3940840B3FE
:100655007580FFE5A0541F44E0F5A053A01F7580E9
:0C066500FFE5A0541F44C0F5A053A01FE7
:010671002266
:0E08F50000007F057E907D47DDFEDEFCDFFA11
:0109030022D1
:0600030000007F93DFFE08
:0100090022D4
:0609100000007F21DFFE64
:0109160022BE
:08073600024B0000024D00001F
:03000B0002086583
:10086500C0E0054CE54C7002054B64C8454B70046F
:10087500F54BF54C054EE54E7002054D6404454DAE
:090885007004F54DF54ED0E0328F
:1008BB00438E805389F0758A20758CD1C28DD28C72
:0508CB00D2A9D2AF220A
:10000E00EC4D6011E8497017ED33EC3304600DE4EC
:10001E00FCFFFEFD22E933E8330470F80201BE1244
:10002E00018958046009E4CC248150062850090245
:10003E0001C82840030201C5C0E0EB4A7044B980F4
:10004E0006D0E0FB0201B4EF4E701CBD8008EBFF42
:10005E00EAFEE9FD80EBE98DF0A4FEE5F00200F783
:10006E00E9CDF9EAFEEBFFEF89F0A4FCE5F0CE89CD
:10007E00F0A42EFFE435F0CD89F0A42DFEE435F08A
:10008E008067EF4E7005BD80D780C3EF8BF0A4ACB8
:10009E00F0EE8BF0A42CFCE435F0F8EF8AF0A42CF3
:1000AE00E5F038FCE433CB8DF0A42CFCE5F03BF806
:1000BE00EE8AF0A42CFCE5F038F8E433CF89F0A4F6
:1000CE002CFCE5F038CF3400CE89F0A42FFFE5F0FC
:1000DE003EFEE433C98DF0A42EFEE5F039CD8AF054
:1000EE00A42FFFE5F03EFEE43DFD33D0E0FB5007CC
:1000FE000BBB000F0201C8EC2CFCEF33FFEE33FEFE
:06010E00ED33FD0201A02B
:1001140075F020800E75F010800575F0087D007E66
:10012400007F003392D530D503120222EC33401005
:10013400EF33FFEE33FEED33FDEC33FCD5F0ED226F
:0E014400E5F0247EA2D513CC92E7CDCEFF22AB
:10015200EDD2E7CD33EC3392D524814006E4FFFEA5
:10016200FDFC22FCE4CFCECDCC24E0501174FF8004
:10017200EDC3CC13CCCD13CDCE13CECF13CF0470A1
:07018200F030D5DE0202227D
:10018900E9D2E7C933E833F892D5EDD2E7CD33ECBC
:0701990033FC5002B2D52235
:1001A000EC30E7100FBF000C0EBE00080DBD0004C0
:1001B0000BEB6014A2D5EB13FCED92E7FD2274FF6C
:1001C000FCFDFEFF22E480F8A2D574FF13FC7D80C5
:0301D000E480EFD9
:030000000205797D
:0C057900787FE4F6D8FD7581560205C0BD
:1001D300BB010689828A83E0225002E722BBFE022A
:0901E300E32289828A83E493225D
:1001EC00C2D5EC30E709B2D5E4C39DFDE49CFCEE2E
:1001FC0030E715B2D5E4C39FFFE49EFE120230C374
:10020C00E49DFDE49CFC800312023030D507C3E46E
:06021C009FFFE49EFE229C
:0E022200C3E49FFFE49EFEE49DFDE49CFC22ED
:100585000208D0E493A3F8E493A34003F68001F2B4
:1005950008DFF48029E493A3F85407240CC8C33377
:1005A500C4540F4420C8834004F456800146F6DF46
:1005B500E4800B01020408102040809006D9E47EF7
:1005C500019360BCA3FF543F30E509541FFEE4933B
:1005D500A360010ECF54C025E060A840B8E493A302
:1005E500FAE493A3F8E493A3C8C582C8CAC583CA2D
:1005F500F0A3C8C582C8CAC583CADFE9DEE780BEE5
:01073E0000BA
:10023000BC000BBE0029EF8DF084FFADF022E4CCB2
:10024000F875F008EF2FFFEE33FEEC33FCEE9DEC7B
:10025000984005FCEE9DFE0FD5F0E9E4CEFD22EDC1
:10026000F8F5F0EE8420D21CFEADF075F008EF2F0B
:10027000FFED33FD4007985006D5F0F222C398FDFC
:050280000FD5F0EA2299
:00000001FF
