:100BF9007580FFE5A0541F44E0F5A053A01F758040
:100C0900FFE5A0541F4480F5A053A01F7580FFE5A0
:100C1900A0541F44C0F5A053A01FE4F580E5A054DB
:100C29001F44A0F5A053A01FE4F580E5A0541F447C
:0F0C3900A0F5A053A01F120F14120EEB020D2BEB
:100E7400120BF9E5622564F568E5613563F56712DF
:100E84000F9512070F120D681207EF1208C2120B0A
:030E94002580E0D6
:100AA5000263000002650000025F07D002610000DA
:040AB50002670000D4
:100F1400538E7F5389F0438905E4F58AF58CC28D9D
:030F2400D28C224A
:090AB900017100017300017200DB
:100CE500E4F51AC2B2D2B320C40B120F6C20C405AE
:100CF500751A0180F820C20B120F6C20C205751AF7
:100D05000280F8D2B2C2B320C40B120F6C20C40506
:100D1500751A0380F820C20B120F6C20C205751AD4
:050D25000480F8AF1A84
:010D2A0022A6
:1007EF00120CE5BF0119E5715403FEBE0107E57355
:1007FF00045401F573BE0307E572045401F572EF5B
:10080F0064027047E5715403FEBE011EE57320E0DC
:10081F0019D3E56094E8E55F64809483400C741805
:10082F002560F56074FC355FF55FBE011EE5733022
:10083F00E019D3E562947CE5616480947C400C748C
:10084F009C2562F56274FF3561F561BF0319E5718F
:10085F00045403F5715403FE64016003E4F573EE71
:10086F0064036003E4F572EF64047046E5715403AA
:10087F00FFBF011EE57320E019C3E5609428E55F13
:10088F00648094A3500C74E82560F5607403355FA1
:10089F00F55FBF011DE57330E018C3E5629484E591
:1008AF006164809483500B74642562F562E4356152
:0208BF00F561E1
:0108C1002214
:0E0F7B0080828486888A8C81838587898B8D0D
:080AC200061100000000000015
:100F2700E4FEC297EF1392A3EFC313FFD2970EBE4F
:020F370008F0C0
:010F39002295
:100F0000C29300C29700D29300120F27AF05120FB1
:040F100027C293223F
:100DDE00E4FDC29300C29700D29300120F27E4FFE6
:100DEE00C297EDC313FD30A303430580D2970FBF07
:100DFE0008EEC29300C293C29700D29700C2A3001E
:050E0E00D2A300AF05B6
:010E130022BC
:100C97007BFF7A0F7982E4FC12037BFF120DDE746F
:100CA7001D2CF8A607740129F9E43AFA0CBC03E8ED
:100CB700E51FC4540FF50BE51F540FF50CE51EC4D3
:100CC700540FF50DE51E540FF50EE51DC4540FF531
:0D0CD7000FE51D540FF5107B007A00790B1E
:010CE40022ED
:100D2B00E4FD7F8E120F00900F7BE493FFE515C45B
:100D3B0054F04516FD120F00A3E493FFE513C454C2
:100D4B00F04514FD120F00A3E493FFE511C454F01A
:0D0D5B004512FD120F007D807F8E020F00FB
:0A0F9500120C978B088A09890A22C2
:100E97008F1A120F5D7F90120E48120F3A7F401281
:0D0EA7000E48120F3AAF1A120E48020F89C2
:10070F007F007E00C3E5676480948050030207E496
:10071F00D3E56894F4E567648094815008E47D4CD8
:10072F007C420207E9D3E56894F4E567648094811D
:10073F0050030207DBD3E5689560E55F6480F8E559
:10074F006764809840030207DBAC5FAD60EC120278
:10075F00C1E4FBFA79FA78C3120025A804A905AA07
:10076F0006AB07E4FFFE7D4C7C4312021FC004C0A2
:10077F0005C006C007AC67AD68EC1202C1D003D04C
:10078F0002D001D000120116C004C005C006C00778
:10079F00AC5FAD60EC1202C1E4FBFA79FA78C312D8
:1007AF000025A804A905AA06AB077F007E387DC7E0
:1007BF007C4712021FD003D002D001D000120025B7
:1007CF00E4FBFA794C78C2120025800EE4FFFE7D1F
:1007DF007F7C438005E4FFFEFDFC1202FA020E97B8
:100D68007FFFE571540370042000011FC3E5676429
:100D780080948050028014D3E5689560E55F6480B4
:100D8800F8E56764809840062001035307FD8F80CB
:0B0D9800E5A0541F4480F5A053A01FED
:010DA300222D
:100F4C00C0F9A4B0999282F88090BF8E8C8988FFEA
:010F5C00C7CD
:100ACA00083F0B0F0F0F0F0F0F0F08370C010F0FF7
:100ADA000F0F0F0F082F0C020F0F0F0F0F0F0847E2
:100AEA000F0F0A0F0F0A0F0F084F0D0B0F0F0F0FE3
:100AFA000F0F08570D0E0F0F0F0F0F0F08210F0FB3
:060B0A000F0F0F0F0F0F8B
:1005E000C3E5689410E567648094A74024AE67AFC4
:1005F000687C277D101203D38F42AE67AF687C27DB
:100600007D101203D37E037FE8CFCDCFCECCCE803A
:1006100024C3E56894E8E567648094834033E56823
:100620009410E567648094A7502775420FAE67AFBA
:10063000687C037DE81203D38F43AE67AF687C0309
:100640007DE81203D37E007F64CFCDCFCECCCE80A9
:1006500027C3E5689464E567648094804036E56864
:1006600094E8E56764809483502A75420F75430FC0
:10067000AE67AF687C007D641203D38F44AE67AF72
:10068000687C007D641203D37E007F0ACFCDCFCE7D
:10069000CCCE802AC3E568940AE5676480948040E4
:1006A00030E5689464E56764809480502475420F57
:1006B00075430F75440FAE67AF687C007D0A120367
:1006C000D38F45AE67AF687C007D0A1203D38D4699
:1006D00022C3E56764809480401CE568940AE5675E
:1006E00064809480501075420F75430F75440F75E8
:1006F000450F85684622C3E56764809480500F7576
:0F070000420F75430F75440F7545107546102253
:100C4800AE5FAF607C037DE81203D38F3BAE5FAF2E
:100C5800607C037DE81203D37E007F64CFCDCFCEC6
:100C6800CCCE1203D38F3CAE5FAF607C007D6412A4
:100C780003D37E007F0ACFCDCFCECCCE1203D38F45
:0F0C88003DAE5FAF607C007D0A1203D38D3E222C
:10098300AE61AF627CFF7DFF1203C1AB07AA06D342
:10099300E5629400E56164809480403075330FAE66
:1009A30061AF627C007D641203D38F34AE61AF62AA
:1009B3007C007D641203D37E007F0ACFCDCFCECCE3
:1009C300CE1203D38F35AE61AF628040E5624561DD
:1009D300700C75330F75340F75350FF5362275337B
:1009E3000A7C007D64AF03AE021203D38F347C0014
:1009F3007D64AF03AE021203D37E007F0ACFCDCF57
:100A0300CECCCE1203D38F35AE02AF037C007D0A6A
:050A13001203D38D3633
:010A180022BB
:100DA400AB08AA09A90A12037BF5479000011203B4
:100DB40094F54875490A900002120394F54A90008C
:100DC40003120394F54B754C0A900004120394F536
:0A0DD4004D900005120394F54E2225
:10046C00D3E5689566E5656480F8E5676480984037
:09047C004DE56764809480404561
:10048500120C978B1A8A1B891C856765856866120D
:10049500037BF529900001120394F52A90000212BE
:1004A5000394F52B900003120394F52C900004128D
:1004B5000394F52D900005120394F52E751700751C
:0504C500180075192963
:1004CA00C3E5669410E565648094A74024AE65AFE1
:1004DA00667C277D101203D38F52AE65AF667C27E8
:1004EA007D101203D37E037FE8CFCDCFCECCCE8052
:1004FA0024C3E56694E8E565648094834033E56641
:10050A009410E565648094A7502775520FAE65AFC5
:10051A00667C037DE81203D38F53AE65AF667C0316
:10052A007DE81203D37E007F64CFCDCFCECCCE80C0
:10053A0027C3E5669464E565648094804036E56681
:10054A0094E8E56564809483502A75520F75530FB9
:10055A00AE65AF667C007D641203D38F54AE65AF7F
:10056A00667C007D641203D37E007F0ACFCDCFCE96
:10057A00CCCE802AC3E566940AE5656480948040FF
:10058A0030E5669464E56564809480502475520F62
:10059A0075530F75540FAE65AF667C007D0A120362
:1005AA00D38F55AE65AF667C007D0A1203D38D5694
:1005BA0022C3E56564809480401BE566940AE5657C
:1005CA0064809480500F75520F75530F75540F75D0
:0605DA00550F8566562254
:100E1400AB17AA18A91912037BF559900001120304
:100E240094F55A900002120394F55B9000031203A8
:100E340094F55C900004120394F55D900005120390
:040E440094F55E22A1
:1008C200E571540370151205E0E4FB743F2BF8E662
:1008D200FF74212BF8A6070BBB08F0E571540364E3
:1008E20001701AE57320E015120C48E4FB74372BF3
:1008F200F8E6FF74212BF8A6070BBB08F0E571544C
:10090200036401701AE57330E015120983E4FB7485
:100912002F2BF8E6FF74212BF8A6070BBB08F0E596
:10092200715403FFBF0215120DA4E4FB74472BF8A8
:10093200E6FF74212BF8A6070BBB08F0E571540300
:100942006403701AE57220E01512046CE4FB744F24
:100952002BF8E6FF74212BF8A6070BBB08F0E57114
:1009620054036403701AE57230E015120E14E4FBAE
:1009720074572BF8E6FF74212BF8A6070BBB08F07F
:010982002252
:100B2500E4F51A7580FFE5A0541F44E0F5A053A035
:100B35001FAF1AA8077401088002C333D8FCF580DB
:100B4500E5A0541F44C0F5A053A01F7421251AF831
:100B5500E6900F4C93F51BF580E5A0541F44E0F596
:100B6500A053A01F120F9F051AE51AC3940840B39E
:100B75007580FFE5A0541F44E0F5A053A01F7580C4
:0C0B8500FFE5A0541F44C0F5A053A01FC2
:010B91002241
:100B1000026F0000026D000002690000026B00001D
:040B2000C100C1014E
:03001B00020B9243
:100B9200C0E0C0D075D000C005C006C0070570E532
:100BA200707002056FFFAE6FBE0319BFE816756F56
:100BB20000757000AF8CEFAD8AF563EDF564758C4E
:100BC20000758A00056AE56A7002056964C84569AC
:100BD2007006F569F56AB200056CE56C7002056B8A
:100BE20064C8456B7006F56BF56CB201D007D00690
:070BF200D005D0D0D0E032A5
:100EEB00538EBF53890F758B18758DFCC28FD28EA5
:050EFB00D2ABD2AF22D2
:040ED100D2A07F0527
:100ED500000000000000000000000000000000AE5F
:060EE500071FEE70EB2276
:0F0F5D00D2A1120ED1C2A17F05120ED5C2A022C1
:0C0F8900C2A1120ED1D2A17F05020ED52C
:020E4800AD07F4
:100E4A00E4FCC2A07F05120ED5ED30E704D2A180E2
:100E5A0002C2A17F05120ED5D2A0ED25E0FD7F05C5
:090E6A00120ED50CBC08DBC2A07D
:010E7300225C
:100EB400E4FC120ED1ED25E0FD30A103430501C28F
:0C0EC400A07F05120ED50CBC08E8AF059D
:010ED00022FF
:100F3A00120ED1A2A1E433FDC2A07F05120ED5AFD5
:010F4A0005A1
:010F4B002283
:10000300C2A0EF24FF92A17F05120ED5120ED1C21A
:08001300A0D2A17F05020ED569
:060F9F0000007F93DFFE5D
:010FA5002229
:0E0F6C0000007F057E907D47DDFEDEFCDFFA93
:010F7A002254
:10001E00020366E86480F8E933E83360110460F0A7
:10002E00ED33EC337009E8FCE9FDEAFEEBFF220448
:10003E0060DED3EB9FEA9EE99DE8C2E78CF0C2F743
:10004E0095F0400CE8CCF8E9CDF9EACEFAEBCFFB0F
:10005E0012033185D0F05804700320D5B3E8047034
:10006E00075002B2D502037092D5EC0460F7E4CCCF
:10007E00C0E0C398F8603B94186008400DD0E0FBD8
:10008E00020348E4FBFAC9FC8028E830E406E4C920
:10009E00FBE4CAFCE830E305E4C9CACBFCE854072C
:1000AE006010F8C3E913F9EA13FAEB13FBEC13FC37
:1000BE00D8F130F52FC3E49CFCEF9BFFEE9AFEEDDA
:1000CE0099FDD0E0FBEF4E4D4C701222DB03020384
:1000DE006DEC2CFCEF33FFEE33FEED33FDED30E730
:1000EE00EB020348EF2BFFEE3AFEED39FDD0E0FBBD
:1000FE0050130BBB0003020370ED13FDEE13FEEF66
:08010E0013FFEC13FC0203488F
:10011600EC4D6011E8497017ED33EC3304600DE4E3
:10012600FCFFFEFD22E933E8330470F80203661291
:10013600033158046009E4CC248150062850090292
:10014600037028400302036DC0E0EB4A7044B98097
:1001560006D0E0FB02035CEF4E701CBD8008EBFF8F
:10016600EAFEE9FD80EBE98DF0A4FEE5F00201FF71
:10017600E9CDF9EAFEEBFFEF89F0A4FCE5F0CE89C4
:10018600F0A42EFFE435F0CD89F0A42DFEE435F081
:100196008067EF4E7005BD80D780C3EF8BF0A4ACAF
:1001A600F0EE8BF0A42CFCE435F0F8EF8AF0A42CEA
:1001B600E5F038FCE433CB8DF0A42CFCE5F03BF8FD
:1001C600EE8AF0A42CFCE5F038F8E433CF89F0A4ED
:1001D6002CFCE5F038CF3400CE89F0A42FFFE5F0F3
:1001E6003EFEE433C98DF0A42EFEE5F039CD8AF04B
:1001F600A42FFFE5F03EFEE43DFD33D0E0FB5007C3
:100206000BBB000F020370EC2CFCEF33FFEE33FE4A
:06021600ED33FD02034878
:10021C00020370EC5D046005E85904700302036688
:10022C00120331580460F6EC4860F2EC7004FDFEE9
:10023C00FF22C860DB2481C85009C39860025006B5
:10024C0002036D9850CAF582E9294B4A7005AB82BE
:10025C0002035C75F0007C1A7880C3EF9BEE9AED7C
:10026C0099400DC3EF9BFFEE9AFEED99FDE842F02D
:10027C00DC23ACF0D0E0FFD0E0FED0E0FDAB822080
:10028C00E7101BEB60BAEC2CFCEF33FFEE33FEED0A
:10029C0033FD020348E803F830E705C0F075F000C1
:1002AC00EF2FFFEE33FEED33FD40B830E7C280AAEE
:1002BC0075F020800E75F010800575F0087D007EBD
:1002CC00007F003392D530D503120409EC33401073
:1002DC00EF33FFEE33FEED33FDEC33FCD5F0ED22C6
:0E02EC00E5F0247EA2D513CC92E7CDCEFF2202
:1002FA00EDD2E7CD33EC3392D524814006E4FFFEFC
:10030A00FDFC22FCE4CFCECDCC24E0501174FF805A
:10031A00EDC3CC13CCCD13CDCE13CECF13CF0470F7
:07032A00F030D5DE020409EA
:10033100E9D2E7C933E833F892D5EDD2E7CD33EC12
:0703410033FC5002B2D5228B
:10034800EC30E7100FBF000C0EBE00080DBD000416
:100358000BEB6014A2D5EB13FCED92E7FD2274FFC2
:10036800FCFDFEFF22E480F8A2D574FF13FC7D801B
:03037800E480EF2F
:03000000020A19D8
:0C0A1900787FE4F6D8FD758173020A6056
:10037B00BB010689828A83E0225002E722BBFE0280
:09038B00E32289828A83E49322B3
:10039400BB010CE58229F582E5833AF583E022501E
:1003A40006E92582F8E622BBFE06E92582F8E22268
:0D03B400E58229F582E5833AF583E4932282
:1003C100EF8DF0A4A8F0CF8CF0A428CE8DF0A42E50
:0203D100FE220A
:1003D300C2D5EC30E709B2D5E4C39DFDE49CFCEE45
:1003E30030E715B2D5E4C39FFFE49EFE120417C3A2
:1003F300E49DFDE49CFC800312041730D507C3E49D
:060403009FFFE49EFE22B3
:0E040900C3E49FFFE49EFEE49DFDE49CFC2204
:100A2500020E74E493A3F8E493A34003F68001F265
:100A350008DFF48029E493A3F85407240CC8C333D2
:100A4500C4540F4420C8834004F456800146F6DFA1
:100A5500E4800B0102040810204080900AA5E47E82
:100A6500019360BCA3FF543F30E509541FFEE49396
:100A7500A360010ECF54C025E060A840B8E493A35D
:100A8500FAE493A3F8E493A3C8C582C8CAC583CA88
:100A9500F0A3C8C582C8CAC583CADFE9DEE780BE40
:010B240000D0
:10041700BC000BBE0029EF8DF084FFADF022E4CCC9
:10042700F875F008EF2FFFEE33FEEC33FCEE9DEC92
:10043700984005FCEE9DFE0FD5F0E9E4CEFD22EDD8
:10044700F8F5F0EE8420D21CFEADF075F008EF2F22
:10045700FFED33FD4007985006D5F0F222C398FD13
:050467000FD5F0EA22B0
:00000001FF
