:02035C00C100DE
:1002E5007580FFE5A0541F4480F5A053A01F7580BD
:1002F500FFE5A0541F44C0F5A053A01F7580FFE57E
:10030500A0541F44E0F5A053A01FE4F580E5A054D8
:090315001F44A0F5A053A01F2213
:10028600E4F508F509F50A1202E512021F8F0812B5
:10029600021F8F09E50824FE6007047006D200805D
:1002A60002C200300032E50924FC601104701F050B
:1002B6000AE50AD394044011750A01800C150AE573
:1002C6000AC394015003750A04E4FF12019DAF0AA4
:0F02D600120003E4FF12019D7F0112019D80AB16
:10031E0001020408102040808040201008040201D1
:08032E008142241818244281C9
:100003007580FFE5A0541F4480F5A053A01FEF2483
:10001300FE604D14700302009D1470030200D72488
:10002300036003020110E4F50CE50C90031E93F545
:100033000BF580E5A0541F4480F5A053A01F7F80DB
:100043001203367580FFE5A0541F4480F5A053A02A
:100053001F7F80120336050CE50CC3940840CA22A7
:10006300E4F50CE50C90032693F50BF580E5A0541D
:100073001F4480F5A053A01F7F801203367580FFB5
:10008300E5A0541F4480F5A053A01F7F80120336C0
:10009300050CE50CC3940840CA22E4F50CE50C906A
:1000A300032E93F50BF580E5A0541F4480F5A05370
:1000B300A01F7F901203367580FFE5A0541F448074
:1000C300F5A053A01F7F90120336050CE50CC394D3
:1000D3000440CA22E4F50CE50C90033293F50BF5CA
:1000E30080E5A0541F4480F5A053A01F7F90120306
:1000F300367580FFE5A0541F4480F5A053A01F7FF1
:0D01030090120336050CE50CC3940440CAAD
:0101100022CC
:10034700BFBFBFBFBFBFBF88BFBFBFBFBFBFBF03A9
:10019D00E4FE7580FFE5A0541F44E0F5A053A01FB9
:1001AD00E4FD7580FFE5A0541F44E0F5A053A01FAA
:1001BD00A8067401088002C333D8FCF580E5A0546D
:1001CD001F44C0F5A053A01F0EEF75F008A42447DF
:1001DD00F582E43403F583E5822DF582E43583F56C
:1001ED0083E493FCF580E5A0541F44E0F5A053A0F3
:1001FD001F0DBD08ADE4F580E5A0541F44C0F5A06A
:10020D0053A01F7580FFE5A0541F44E0F5A053A037
:01021D001FC1
:01021E0022BD
:05035700000102030497
:10021F00C2B0D2B1D2B2D2B320C40D7F64120336B2
:10022F0020C405900358804BD2B0C2B1D2B2D2B322
:10023F0020C40D7F6412033620C405900359803308
:10024F00D2B0D2B1C2B2D2B320C40D7F6412033682
:10025F0020C40590035A801BD2B0D2B1D2B2C2B320
:10026F0020C40D7F6412033620C40590035B800306
:07027F00900357E493FF22F6
:10033600AE071FEE600A7E027DEFDDFEDEFC80F07A
:010346002294
:03000000020111E9
:0C011100787FE4F6D8FD758120020158CB
:10011D00020286E493A3F8E493A34003F68001F270
:10012D0008DFF48029E493A3F85407240CC8C333E3
:10013D00C4540F4420C8834004F456800146F6DFB2
:10014D00E4800B010204081020408090035CE47EE3
:10015D00019360BCA3FF543F30E509541FFEE493A7
:10016D00A360010ECF54C025E060A840B8E493A36E
:10017D00FAE493A3F8E493A3C8C582C8CAC583CA99
:10018D00F0A3C8C582C8CAC583CADFE9DEE780BE51
:01035E00009E
:00000001FF
