:100132007580FFE5A0541F44E0F5A053A01F758011
:10014200FFE5A0541F44C0F5A053A01FE4F580E5CD
:10015200A0541F44A0F5A053A01F7580FFE5A05432
:0F0162001F4480F5A053A01F120003751CFF223D
:10022D001201323000081202681201A5C20012003C
:10023D00B2851C80E5A0541F4480F5A053A01F80FB
:01024D00E2CE
:03001E00C0F9FF27
:0A024E00081102020202020202027D
:1001A50012025E8B198A1A891BE4FFAB19AA1AA9D8
:1001B5001B8F827583001201D4B4310874112FF896
:0E01C5007601800674112FF8E4F60FBF08DDF6
:0101D3002209
:1000B200E4F51A7580FFE5A0541F44E0F5A053A0B3
:1000C2001F7580FFE5A0541F44C0F5A053A01FAFC9
:1000D2001BA8077401088002C333D8FCF580E5A091
:1000E200541F44C0F5A053A01F7411251AF8E690BE
:1000F200001E93F519F580E5A0541F44E0F5A053C6
:10010200A01F051B120271051AE51AC3940840A329
:10011200E4F51B7580FFE5A0541F44E0F5A053A051
:0F0122001F7580FFE5A0541F44C0F5A053A01F18
:0101310022AB
:060201008B198A1A891B0B
:10020700E4FFFEAB19AA1AA91B8E8275830012019F
:10021700D4B4310DA8067401088002C333D8FC4258
:05022700070EBE08DE19
:01022C0022AF
:0802680012025E1202018F1C5C
:01027000226B
:05025800010800C100D7
:10000300759850438E40538EFE53890F758BC77579
:0B0013008DFEC2ABD28ED2ACD2AF2269
:0300230002017166
:10017100C0E0C0D075D000C000309902C29930985B
:100181001CC298E508C39408501374092508F8A601
:10019100990508E508B40805D200750800D000D01B
:0401A100D0D0E032A8
:0A025E003000067B007A00790922C7
:080271007F027E27DEFEDFFCA8
:010279002262
:03000000020026D5
:0C002600787FE4F6D8FD75812002006DA3
:1001D400BB010CE58229F582E5833AF583E02250E0
:1001E40006E92582F8E622BBFE06E92582F8E2222A
:0D01F400E58229F582E5833AF583E4932244
:1000320002022DE493A3F8E493A34003F68001F2B5
:1000420008DFF48029E493A3F85407240CC8C333CF
:10005200C4540F4420C8834004F456800146F6DF9E
:10006200E4800B010204081020408090024EE47EDE
:10007200019360BCA3FF543F30E509541FFEE49393
:10008200A360010ECF54C025E060A840B8E493A35A
:10009200FAE493A3F8E493A3C8C582C8CAC583CA85
:1000A200F0A3C8C582C8CAC583CADFE9DEE780BE3D
:01025D0000A0
:00000001FF
