:1002E9007580FFE5A0541F4480F5A053A01F7580B9
:1002F900FFE5A0541F44E0F5A053A01F7580FFE55A
:10030900A0541F44C0F5A053A01FE4F580E5A054F4
:0B0319001F44A0F5A053A01F0202AC7F
:0B03D3001202E91200031203DE80F8A2
:0E039F0080828486888A8C81838587898B8DF5
:0803BB000638020305090509DB
:10038C00E4FEC297EF1392A3EFC313FFD2970EBEF6
:02039C0008F067
:01039E00223C
:10037800C29300C29700D2930012038CAF051203F8
:040388008CC293226E
:10032400E4FDC29300C29700D2930012038CE4FF51
:10033400C297EDC313FD30A303430580D2970FBFCB
:1003440008EEC29300C293C29700D29700C2A300E2
:05035400D2A300AF057B
:010359002281
:100212007BFF7A0379A6E4FC120266FF12032474C0
:100222002D2CF8A607740129F9E43AFA0CBC03E86C
:10023200E52FC4540FF530E52F540FF53175320A0E
:10024200E52EC4540FF533E52E540FF53475350AF7
:10025200E52DC4540FF536E52D540FF5377B007AA2
:03026200007930F0
:010265002276
:1002AC00E4FD7F8E12037890039FE493FFE53CC43A
:1002BC0054F0453DFD120378A3E493FFE53AC45492
:1002CC00F0453BFD120378A3E493FFE538C454F0EA
:0D02DC004539FD1203787D807F8E02037886
:0C03C700C0F9A4B0999282F88090BFFFAA
:10019000120212120266F50890000112027FFFF5AA
:1001A0000990000212027FFEF50A90000312027FFE
:1001B000FDF50B90000412027FF50C900005120271
:1001C0007FF50D90000612027FF50E9000071202D7
:1001D0007FF50F75100B75110B75120B120266F57A
:1001E000138F148E158D1690000412027FF517756B
:1001F000180B75190B751A0B751B0B751C0B751DE0
:100200000B90000612027FF51E90000712027FF588
:010210001FCE
:0102110022CA
:10000300E4F520F521F52B12035A8F2C120190E50C
:100013002C24FE60211460382402704EE4F52B7406
:1000230008252BF8E6FF7423252BF8A607052BE5F7
:100033002BB408EB804CE4F52B7410252BF8E6FF6A
:100043007423252BF8A607052BE52BB408EB803288
:10005300E4F52B7418252BF8E6FF7423252BF8A65B
:1000630007052BE52BB408EB8018E4F52B74082562
:100073002BF8E6FF7423252BF8A607052BE52BB4F5
:1000830008EB7580FFE5A0541F44E0F5A053A01FC3
:10009300E4F5217580FFE5A0541F44E0F5A053A0CB
:1000A3001FAF20A8077401088002C333D8FCF58072
:1000B300E5A0541F44C0F5A053A01F74232521F8C5
:1000C300E69003C793F522F580E5A0541F44E0F5BD
:1000D300A053A01F1203E705200521E521C39408BF
:1000E30040B1E4F520F580E5A0541F44C0F5A053CA
:1000F300A01F7580FFE5A0541F44E0F5A053A01F87
:0101030022D9
:0303C300013E01F7
:10035A0020B3181203E720B31230B3FD053EE53E81
:0E036A00D394034003753E01AF3E22AF3E2206
:0803DE007FC37E8ADEFEDFFC16
:0103E60022F4
:0D03AD00007F047ECD7DBBDDFEDEFCDFFAAF
:0103BA002220
:0803E7007F067E5DDEFEDFFCF7
:0103EF0022EB
:03000000020104F6
:0C010400787FE4F6D8FD75813E02014BC7
:10026600BB010689828A83E0225002E722BBFE0296
:09027600E32289828A83E49322C9
:10027F00BB010CE58229F582E5833AF583E0225034
:10028F0006E92582F8E622BBFE06E92582F8E2227E
:0D029F00E58229F582E5833AF583E4932298
:100110000203D3E493A3F8E493A34003F68001F22F
:1001200008DFF48029E493A3F85407240CC8C333F0
:10013000C4540F4420C8834004F456800146F6DFBF
:10014000E4800B01020408102040809003BBE47E91
:10015000019360BCA3FF543F30E509541FFEE493B4
:10016000A360010ECF54C025E060A840B8E493A37B
:10017000FAE493A3F8E493A3C8C582C8CAC583CAA6
:10018000F0A3C8C582C8CAC583CADFE9DEE780BE5E
:0103C6000036
:00000001FF
