:1003E0007580FFE5A0541F4480F5A053A01F7580C1
:1003F000FFE5A0541F44E0F5A053A01F7580FFE562
:10040000A0541F44C0F5A053A01FE4F580E5A054FC
:0B0410001F44A0F5A053A01F0203A38F
:1004C7001203E01204DE12000E1200D71204A81263
:0704D700002612056A80F205
:0B054D00C0F9A4B0999282F88090BF22
:1000D700E4F508F509FF1203118B0A8A0B890CE472
:1000E700FFAB0AAA0BA90C8F827583001202B0FE20
:1000F700740D2FF8A6060FBF08E77580FFE5A0541B
:100107001F44E0F5A053A01FE4F5097580FFE5A0A3
:10011700541F44E0F5A053A01FAF08A807740108B7
:100127008002C333D8FCF580E5A0541F44C0F5A076
:1001370053A01F740D2509F8E690054D93F515F5A5
:1001470080E5A0541F44E0F5A053A01F12056105E8
:10015700080509E509C3940840B1E4F508F580E509
:10016700A0541F44C0F5A053A01F7580FFE5A054FD
:080177001F44E0F5A053A01F96
:01017F00225D
:0E05310080828486888A8C81838587898B8D61
:08045100062902030509050953
:10051E00E4FEC297EF1392A3EFC313FFD2970EBE62
:02052E0008F0D3
:0105300022A8
:10050A00C29300C29700D2930012051EAF051205CE
:04051A001EC2932248
:10041B00E4FDC29300C29700D2930012051EE4FFC5
:10042B00C297EDC313FD30A303430580D2970FBFD3
:10043B0008EEC29300C293C29700D29700C2A300EA
:05044B00D2A300AF0583
:010450002289
:100311007BFF7A057938E4FC120297FF12041B7403
:10032100162CF8A607740129F9E43AFA0CBC03E883
:10033100E518C4540FF521E518540FF52275230A69
:10034100E517C4540FF524E517540FF52575260A52
:10035100E516C4540FF527E516540FF5287B007AEE
:03036100007921FF
:010364002276
:1003A300E4FD7F8E12050A900531E493FFE52DC429
:1003B30054F0452EFD12050AA3E493FFE52BC45424
:1003C300F0452CFD12050AA3E493FFE529C454F07C
:0D03D300452AFD12050A7D807F8E02050A75
:080558007FC37E8ADEFEDFFC9A
:010560002278
:0D053F00007F047ECD7DBBDDFEDEFCDFFA1B
:01054C00228C
:080561007F067E5DDEFEDFFC7B
:01056900226F
:08056A007F027E27DEFEDFFCAC
:010572002266
:0D045900C101C100011B0002190000C10219
:10000E005389F0438901758A18758CFCC28DD28C88
:05001E00D2A9D2AF22BF
:03000B0002047D6F
:10047D00C0E0C0D0758A18758CFC300019051AE5DE
:10048D001A70020519C394D0E51994074008D202D9
:0B049D00751900751A00D0D0D0E032B5
:100026001203118B088A09890A1200038B0B8A0CAA
:10003600890DAB08AA09A90A9000011202B0FF12A5
:10004600029775F00AA42FF50E9000031202B07500
:10005600F00AA4FF9000041202B02FF50F900006DC
:100066001202B075F00AA4FF9000071202B02FFF2B
:10007600AB0BAA0CA90D120297FE9000011202B05A
:10008600FD9000021202B0FC30041A200017E50EA3
:10009600B50612E50FB5050DEFB50409D201D2007C
:1000A600E4F51BC2043001287580FFE5A0541F4407
:1000B600A0F5A053A01F300217C201C200C202E47D
:1000C600F580E5A0541F44A0F5A053A01FE4F51B3E
:0100D6002207
:10046600082F0000000000000000013700C1030350
:0604760038000000C10483
:1004DE00759850758E40E4F589758BC8758DFED272
:0604EE008ED2ACD2AF2259
:1004A80030031BC2037B007A00793812020C500219
:0E04B800D204E4F5377F08782FE4F608DFFC65
:0104C6002213
:070003007B007A007938222E
:10020C00E531B43A06E534643A6002C322E4FFEF08
:10021C0064026018EF64056013742F2FF8E6FEC3B8
:10022C0094304006EED394394002C3220FBF08DF4E
:10023C00E52F24D075F00AA4FFE53024D02F12024C
:10024C00DDE53224D075F00AA4FFE53324D02F90DD
:10025C0000011202EFE53524D075F00AA4FFE53653
:10026C0024D02F9000021202EF120297D394175051
:10027C00169000011202B0D3943B500B9000021266
:0A028C0002B0D3943B4002C322D31A
:010296002245
:0300230002036570
:0B036500C0E0C0D075D000C000C00791
:10037000309827C298E537C394085012742F253758
:10038000F8A6990537E537B40810D203800C753705
:0A039000007F08782FE4F608DFFC78
:09039A00D007D000D0D0D0E03231
:1004F4001202976010F5993099FDC299740129F997
:05050400E43AFA80EB6F
:0105090022CF
:030000000201807A
:0C018000787FE4F6D8FD75813A0201C7D3
:10029700BB010689828A83E0225002E722BBFE0265
:0902A700E32289828A83E4932298
:1002B000BB010CE58229F582E5833AF583E0225003
:1002C00006E92582F8E622BBFE06E92582F8E2224D
:0D02D000E58229F582E5833AF583E4932267
:1002DD00BB010689828A83F0225002F722BBFE0100
:0202ED00F322FA
:1002EF00F8BB010DE58229F582E5833AF583E8F045
:1002FF00225006E92582C8F622BBFE05E92582C8F1
:02030F00F222D8
:10018C000204C7E493A3F8E493A34003F68001F2BE
:10019C0008DFF48029E493A3F85407240CC8C33374
:1001AC00C4540F4420C8834004F456800146F6DF43
:1001BC00E4800B0102040810204080900451E47E7E
:1001CC00019360BCA3FF543F30E509541FFEE49338
:1001DC00A360010ECF54C025E060A840B8E493A3FF
:1001EC00FAE493A3F8E493A3C8C582C8CAC583CA2A
:1001FC00F0A3C8C582C8CAC583CADFE9DEE780BEE2
:01047C00007F
:00000001FF
