:100B97007580FFE5A0541F4480F5A053A01F758002
:100BA700FFE5A0541F44E0F5A053A01F7580FFE5A3
:100BB700A0541F44C0F5A053A01FE4F580E5A0543E
:100BC7001F44A0F5A053A01FE4F580E5A0541F44DF
:0F0BD700A0F5A053A01F120C34120EFA020ED17B
:100E2300120B97120D4A900011EFF012075C120992
:100E33002A1206A7120C71120A7B120AE212038409
:050E430012080B80E61F
:07046C00011D004100110019
:100D4A00E4F566120F447F90120DA9120F327F0349
:100D5A00120DA9120F32120F70120F447F91120D49
:100D6A00A9120F32120E668F66120F32120F70AF6F
:010D7A006612
:010D7B002255
:100AE200C3E55B9464E55A9400400A120D4A8F1DD7
:100AF200E4F55AF55B900011E0D3951D4040D20415
:100B0200D206D203200539120B43AC06AD07EC1214
:100B12000221E4FBFA7920784112011612025A8E60
:100B22006F8F70AF8CEFAD8AF575EDF576120BE62F
:100B32008B088A09890AD205E4F58CF58A22C20457
:010B42002290
:100473000275000002770000420000000042000203
:07048300000042000400002C
:100EFA00538E7F5389F0438905E4F58AF58CC28DB8
:030F0A00D28C2264
:1006A70020060302075B30050302075BAF8CEFFEF2
:1006B700AD8AEDFFE4F58CF58AD3EF94C8EE94008C
:1006C70050087575007576648036C3EF94D0EE9444
:1006D7000740087575037576848025AD07AC06E479
:1006E7001202217B397A8E79E3783E1201167B1C40
:1006F7007AC77931784112002512025A8E758F76A2
:10070700C3E5789576E5779575500685757785768F
:1007170078900005E02576F0900004E03575F090BC
:100727000003E004F07006900002E004F09000027D
:10073700E0FCA3E0FDA3E0FEA3E0FF1203217C00A1
:100747007D0A120321900000EEF0A3EFF0E4F562BA
:04075700F563C2067E
:01075B00227B
:08048A0041000F0041001000C9
:1009A400E4F566C2B3D2B220C40C120F5320C406BD
:1009B40075660130C4FD20C20C120F5320C20675A7
:1009C400660230C2FDD2B3C2B220C40C120F53204F
:1009D400C40675660330C4FD20C22E120F5320C412
:1009E40009D200E4F55CF55D8002C20030C2FDC3AB
:1009F400E55D94D0E55C9407400C756604C200E4A0
:0B0A0400F55CF55D8003756605AF66CC
:010A0F0022C4
:10075C001209A490000CEFF090000FE0FE75F0036E
:10076C0084ABF090000DEBF0900010E0FA75F00304
:10077C008490000EE5F0F0EF24FE602114602C1440
:10078C00604914606424047075EE2401FFE433FEA8
:10079C007C007D0312032190000FEDF022EB64022C
:1007AC00705C0572E572700205712290000FE075A5
:1007BC00F00384E5F064017045EA2401FFE433FEA4
:1007CC007C007D03120321A3EDF022E4F573F57494
:1007DC00900006F0A3F0F577F578900000F0A3F008
:1007EC00F50BF50CF50DF50E2290000FE075F003EE
:0E07FC0084AFF0BF0208E5721572700215712D
:01080A0022CB
:0E0F620080828486888A8C81838587898B8D26
:0C0492000617020305090509020F00000F
:100F0D00E4FEC297EF1392A3EFC313FFD2970EBE69
:020F1D0008F0DA
:010F1F0022AF
:100EE600C29300C29700D29300120F0DAF05120FE6
:040EF6000DC2932274
:100CAB00E4FDC29300C29700D29300120F0DE4FF34
:100CBB00C297EDC313FD30A303430580D2970FBF3B
:100CCB0008EEC29300C293C29700D29700C2A30052
:050CDB00D2A300AF05EB
:010CE00022F1
:100BE6007BFF7A0F7969E4FC1202DBFF120CAB740F
:100BF600662CF8A607740129F9E43AFA0CBC03E856
:100C0600E568C4540FF511E568540FF512E567C49D
:100C1600540FF513E567540FF514E566C4540FF544
:0D0C260015E566540FF5167B007A00791174
:010C3300229E
:100C3400E4FD7F8E120EE6900F62E493FFE51BC481
:100C440054F0451CFD120EE6A3E493FFE519C454C9
:100C5400F0451AFD120EE6A3E493FFE517C454F021
:0D0C64004518FD120EE67D807F8E020EE623
:100C7100120BE68B088A09890A300225200522E435
:100C8100FFAB08AA09A90A8F827583001202F4FE3C
:100C9100740B2FF8A6060FBF04E7E4F560F561C2F7
:090CA10002300403D20222C20257
:010CAA002227
:10049E00026F000042000600004200080000420009
:0B04AE000A0000027300000271001E33
:100B4300E4F56DF56CF56BF56A120DFC7FCC120EB6
:100B5300487F44120E487F207E03120EA1120DFC23
:100B63007FCC120E487FBE120E48120EB78F6E1244
:100B73000EB7EFAD6EFCEC1202218F6D8E6C8D6B98
:100B83008C6AE4FFFE7D807C3DAB6DAA6CA96BA8EB
:040B93006A020116DB
:06092A0030037620057386
:10093000120B438F698E688D678C66E4FFFE7D2005
:100940007C41AB69AA68A967A86612011612025A0F
:100950008E6F8F7090000BE02570F090000AE035EC
:100960006FF0900009E004F07006900008E004F0D9
:10097000900008E0FCA3E0FDA3E0FEA3E0FF12036B
:1009800021900006EEF0A3EFF0AF69AE68AD67AC62
:100990006612025AD3EF9574EE957340048E738FEE
:0309A00074C2031B
:0109A3002231
:0504B900011EFFC10857
:100A7B0090000FE075F00384AFF0EF7003751EFE6E
:100A8B00BF0103751EFDD3E5709572E56F9571403F
:100A9B0019D207E5659464E56494004002B208300E
:100AAB000805531EFB8003431EECC3E57694C8E593
:100ABB00759400400BD3E57694D0E575940740050B
:100ACB00531EEF8003431EF8851E80E5A0541F4480
:070ADB0080F5A053A01F22CB
:100F2000C0F9A4B0999282F88090BFC6898E8C8750
:020F300088FF38
:1004BE00083A11110A11110A1111082A0B11111102
:1004CE000A11111108420C1111110A1111110822F1
:1004DE000D111111110A1111084A0E1111111111DC
:1004EE00111108520F111111110A111108321111A7
:0604FE0011111111111192
:100D1600AB08AA09A90A1202DBF53A9000011202F1
:100D2600F4F53B9000021202F4F53D900003120226
:100D3600F4F53E9000041202F4F54090000512020C
:040D4600F4F541225D
:10052D00C3E574940AE5739400401CAE73AF747CFC
:10053D00007D0A1203218F2CAE73AF747C007D0AEF
:10054D001203218D2D8006752C1185742DC39000FD
:10055D0007E09464900006E094004039E0FAA3E0CF
:10056D00FB7C007D64FFAE021203218F2F7C007D8A
:10057D0064AF03AE021203217E007F0ACFCDCFCE32
:10058D00CCCE1203218F30900006E0FEA3E0FF7C5D
:10059D00007D0A8034900006E0FEA3E0FFC3940ABC
:1005AD00EE9400402AEF9464EE94005022752F11C2
:1005BD00900006E0FAA3E0FB7C007D0A1203218F78
:1005CD00307C007D0AAF03AE021203218D312275FE
:0D05DD002F11E4F530900006A3E0F5312267
:1005EA00C3E578940AE5779400401CAE77AF787C2F
:1005FA00007D0A1203218F44AE77AF787C007D0A12
:10060A001203218D458006754411857845C39000F3
:10061A0001E09464900000E094004039E0FAA3E01D
:10062A00FB7C007D64FFAE021203218F477C007DB4
:10063A0064AF03AE021203217E007F0ACFCDCFCE74
:10064A00CCCE1203218F48900000E0FEA3E0FF7C8D
:10065A00007D0A8034900000E0FEA3E0FFC3940A04
:10066A00EE9400402AEF9464EE94005022754711EC
:10067A00900000E0FAA3E0FB7C007D0A1203218FC0
:10068A00487C007D0AAF03AE021203218D49227510
:0D069A004711E4F548900000A3E0F5492267
:100DD500AE0FAF107C007D0A1203218F23AE0FAF3B
:100DE500107C007D0A1203218D24850B25850C2698
:070DF500850D28850E29225F
:100D7C00C3E572940AE5719400401BAE71AF727CAE
:100D8C00007D0A1203218F50AE71AF727C007D0A78
:0D0D9C001203218D512275501185725122D4
:100A1000AE6FAF707C007D641203218F55AE6FAF57
:100A2000707C007D641203217E007F0ACFCDCFCE83
:100A3000CCCE1203218F56AE75AF767C007D64124A
:100A400003218F58AE75AF767C007D641203217E42
:100A5000007F0ACFCDCFCECCCE1203218F59C3E574
:100A60007694C8E5759400400BD3E57694D0E5758F
:0B0A70009407400675581075591022BD
:1003840090000FE075F00384AFF07566008F6790FE
:100394000010E075F00384AFF07568008F693005D4
:1003A40009D201E4F55EF55FC205300127120A1097
:1003B400E4FB74522BF8E6FF74322BF8A6070BBB50
:1003C40008F0C3E55F94B8E55E940B4007C201E40E
:1003D400F55EF55FE566600302046BE56714602073
:1003E40014606F2402600302046B120D16E4FB74A4
:1003F4003A2BF8E6FF74322BF8A6070BBB08F02261
:10040400E5687063E56914601D1460302402705758
:1004140012052DE4FB742A2BF8E6FF74322BF8A6A0
:10042400070BBB08F0221205EAE4FB74422BF8E642
:10043400FF74322BF8A6070BBB08F022120DD5E48B
:10044400FB74222BF8E6FF74322BF8A6070BBB08CB
:10045400F022120D7CE4FB744A2BF8E6FF74322B75
:07046400F8A6070BBB08F02E
:01046B00226E
:10080B00E4F5667580FFE5A0541F44E0F5A053A006
:10081B001FAF66A8077401088002C333D8FCF580AC
:10082B00E5A0541F44C0F5A053A01F74322566F8F1
:10083B00E6900F2093F56790000FE075F00384AFFF
:10084B00F0BF0118E566B40613900010E075F003D5
:10085B0084AFF0EF6003BF010353677F856780E5CB
:10086B00A0541F44E0F5A053A01F120F7C0566E5B2
:10087B0066C39408408D7580FFE5A0541F44E0F5D6
:10088B00A053A01F7580FFE5A0541F44C0F5A053D3
:02089B00A01F9C
:01089D002238
:040E8300D2A07F0575
:100E8700000000000000000000000000000000AEAD
:060E9700071FEE70EB22C4
:0F0F4400D2A1120E83C2A17F05120E87C2A02276
:0C0F7000C2A1120E83D2A17F05020E87E1
:020DA900AD0794
:100DAB00E4FCC2A07F05120E87ED30E704D2A180D0
:100DBB0002C2A17F05120E87D2A0ED25E0FD7F05B3
:090DCB00120E870CBC08DBC2A06B
:010DD40022FC
:100E6600E4FC120E83ED25E0FD30A103430501C22B
:0C0E7600A07F05120E870CBC08E8AF0539
:010E8200224D
:100F3200120E83A2A1E433FDC2A07F05120E87AF79
:010F420005A9
:010F4300228B
:10000300C2A0EF24FF92A17F05120E87120E83C2B6
:08001300A0D2A17F05020E87B7
:040E9D007F057E004F
:100EA100EF1FAA0670011E4A600BE4FDEDC3940C0E
:050EB10050EE0D80F77A
:010EB6002219
:020E4800A907F8
:100E4A00E4FBC294E9139294120E9DD294E9C3135F
:0C0E5A00F90BBB08ED7F057E00020EA125
:100EB700E4FBC294ECC313FCD29430940343048044
:090EC700120E9D0BBB08EBAF04F9
:010ED00022FF
:100DFC00C209D2947F0C7E00120EA1C2947F507E49
:100E0C0000120EA1D2947F0A7E00120EA1A294921F
:060E1C0009120E9DA2095F
:010E220022AD
:1005040002600000025A000002620000025C000067
:1005140002640000025E0000C102C104C106C103FE
:08052400C100C107C101C105BE
:03001B00020CE1F3
:100CE100C0E00561E56170020560055BE55B7002CE
:100CF100055A055FE55F7002055E0563E5637002F5
:100D01000562055DE55D7002055C0565E5657002DE
:050D11000564D0E03292
:100ED100538EBF53890F758B18758DFCC28FD28EBF
:050EE100D2ABD2AF22EC
:060F7C0000007F93DFFE80
:010F8200224C
:0E0F530000007F057E907D47DDFEDEFCDFFAAC
:010F6100226D
:10001E000202C6E86480F8E933E83360110460F048
:10002E00ED33EC337009E8FCE9FDEAFEEBFF220448
:10003E0060DED3EB9FEA9EE99DE8C2E78CF0C2F743
:10004E0095F0400CE8CCF8E9CDF9EACEFAEBCFFB0F
:10005E0012029185D0F05804700320D5B3E80470D5
:10006E00075002B2D50202D092D5EC0460F7E4CC70
:10007E00C0E0C398F8603B94186008400DD0E0FBD8
:10008E000202A8E4FBFAC9FC8028E830E406E4C9C1
:10009E00FBE4CAFCE830E305E4C9CACBFCE854072C
:1000AE006010F8C3E913F9EA13FAEB13FBEC13FC37
:1000BE00D8F130F52FC3E49CFCEF9BFFEE9AFEEDDA
:1000CE0099FDD0E0FBEF4E4D4C701222DB03020285
:1000DE00CDEC2CFCEF33FFEE33FEED33FDED30E7D0
:1000EE00EB0202A8EF2BFFEE3AFEED39FDD0E0FB5E
:1000FE0050130BBB00030202D0ED13FDEE13FEEF07
:08010E0013FFEC13FC0202A830
:10011600EC4D6011E8497017ED33EC3304600DE4E3
:10012600FCFFFEFD22E933E8330470F80202C61232
:10013600029158046009E4CC248150062850090233
:1001460002D02840030202CDC0E0EB4A7044B980D9
:1001560006D0E0FB0202BCEF4E701CBD8008EBFF30
:10016600EAFEE9FD80EBE98DF0A4FEE5F00201FF71
:10017600E9CDF9EAFEEBFFEF89F0A4FCE5F0CE89C4
:10018600F0A42EFFE435F0CD89F0A42DFEE435F081
:100196008067EF4E7005BD80D780C3EF8BF0A4ACAF
:1001A600F0EE8BF0A42CFCE435F0F8EF8AF0A42CEA
:1001B600E5F038FCE433CB8DF0A42CFCE5F03BF8FD
:1001C600EE8AF0A42CFCE5F038F8E433CF89F0A4ED
:1001D6002CFCE5F038CF3400CE89F0A42FFFE5F0F3
:1001E6003EFEE433C98DF0A42EFEE5F039CD8AF04B
:1001F600A42FFFE5F03EFEE43DFD33D0E0FB5007C3
:100206000BBB000F0202D0EC2CFCEF33FFEE33FEEB
:06021600ED33FD0202A819
:10021C0075F020800E75F010800575F0087D007E5D
:10022C00007F003392D530D503120376EC334010A7
:10023C00EF33FFEE33FEED33FDEC33FCD5F0ED2266
:0E024C00E5F0247EA2D513CC92E7CDCEFF22A2
:10025A00EDD2E7CD33EC3392D524814006E4FFFE9C
:10026A00FDFC22FCE4CFCECDCC24E0501174FF80FB
:10027A00EDC3CC13CCCD13CDCE13CECF13CF047098
:07028A00F030D5DE0203761F
:10029100E9D2E7C933E833F892D5EDD2E7CD33ECB3
:0702A10033FC5002B2D5222C
:1002A800EC30E7100FBF000C0EBE00080DBD0004B7
:1002B8000BEB6014A2D5EB13FCED92E7FD2274FF63
:1002C800FCFDFEFF22E480F8A2D574FF13FC7D80BC
:0302D800E480EFD0
:0300000002089E55
:0C089E00787FE4F6D8FD7581780208E54B
:1002DB00BB010689828A83E0225002E722BBFE0221
:0902EB00E32289828A83E4932254
:1002F400BB010CE58229F582E5833AF583E02250BF
:1003040006E92582F8E622BBFE06E92582F8E22208
:0D031400E58229F582E5833AF583E4932222
:10032100BC000BBE0029EF8DF084FFADF022E4CCC0
:10033100F875F008EF2FFFEE33FEEC33FCEE9DEC89
:10034100984005FCEE9DFE0FD5F0E9E4CEFD22EDCF
:10035100F8F5F0EE8420D21CFEADF075F008EF2F19
:10036100FFED33FD4007985006D5F0F222C398FD0A
:050371000FD5F0EA22A7
:0E037600C3E49FFFE49EFEE49DFDE49CFC2298
:1008AA00020E23E493A3F8E493A34003F68001F233
:1008BA0008DFF48029E493A3F85407240CC8C3334F
:1008CA00C4540F4420C8834004F456800146F6DF1E
:1008DA00E4800B010204081020408090046CE47E3E
:1008EA00019360BCA3FF543F30E509541FFEE49313
:1008FA00A360010ECF54C025E060A840B8E493A3DA
:10090A00FAE493A3F8E493A3C8C582C8CAC583CA04
:10091A00F0A3C8C582C8CAC583CADFE9DEE780BEBC
:01052C0000CE
:00000001FF
