:0A039400010900C101C1000108C801
:10038100538E7F5389F0758A78758CECC28DD28C2F
:03039100D2A922CC
:10028900EFB408005036900296F82828730202AE9F
:100299000202B10202B40202B70202BA0202BD02AC
:1002A90002C00202C3B28022B28122B28222B28388
:0D02B90022B28422B28522B28622B28722B0
:10033600A8077401088002C333D8FCFEF4520930C2
:0C0346000006C200EE42092212028922C9
:1001D9007F08C2B3C2B2C2B1C2B0D2C2D2C430C4A3
:1001E9000320C25500000000000030C40320C249AA
:1001F900D201D2B3D2B2D2B1D2B0C2C2C2C420B338
:1002090004E4FF801320B2047F01800C20B1047F35
:1002190002800520B0027F03C2B3C2B2C2B1C2B02C
:10022900D2C2D2C420C20474042FFF30C4FD30C22C
:09023900FAC2017508C81203366F
:010242002299
:10035200E4FEA806E509088002C313D8FC30E005D4
:09036200AF061202890EBE08E983
:01036B00226F
:03000B000202C628
:1002C600C0E0C083C082C0D075D000C000C006C0E8
:1002D60007D20230010AD50807C201D2007508C844
:1002E600050AE50AB41406750A00120352D007D0AF
:0C02F60006D000D0D0D082D083D0E032FF
:10036C00120381D2AF7580FFE5A0541F4480F5A025
:05037C001201D980FB15
:09039F0000010203040506070831
:020161008D0B04
:10016300E4F50CF50DE5B054F0440FF5B0EF24FEC3
:10017300600E14600F1460102403700EC2B0800A66
:10018300C2B18006C2B28002C2B3120003E50B7093
:100193000330C409E50B6401703A20C237E50B70E4
:1001A3000330C409E50B6401702820C2251203B192
:1001B300050DE50D7002050CD39464E50C94004025
:1001C300DCE50B700330C4F9E50BB4010330C2F175
:0501D300D322D322C37A
:0101D8002204
:10000E00750EFFE4F50FF510F50FE4F510AD10AF1A
:10001E000F12016140030200B6E50F700AE5107081
:10002E00069003A293F50EE50FB4010AE5107006D3
:10003E009003A193F50EE50FB4020AE51070069039
:10004E0003A093F50EE50FB4030AE51070069003B6
:10005E009F93F50EE50F700CE510B401079003A702
:10006E00E493F50EE50FB4010CE510B4010790030F
:10007E00A6E493F50EE50FB4020CE510B40107905B
:10008E0003A5E493F50EE50FB4030CE510B40107D8
:10009E009003A4E493F50EE50FB4040CE510B4013F
:1000AE00079003A3E493F50E0510E510C3940250D8
:1000BE000302001B050FE50FC39404500302001842
:0600CE009003A8E493FF7B
:0100D4002209
:05000300007F2FDFFE6D
:0100080022D5
:0803A8007FC37E8ADEFEDFFC4C
:0103B000222A
:0803B1007F147E71DEFEDFFC0B
:0103B9002221
:100302008F13A807ED088002C313D8FC5401FEBE68
:10031200010FA8077401088002C333D8FCF45DFF03
:1003220022EE700DA80704088002C333D8FC4DFFEB
:03033200227F0027
:0103350022A5
:100243008F118D12A807E512088002C313D8FC543E
:1002530001FEBE010EA8077401088002C333D8FC57
:10026300F45212EE700CA80704088002C333D8FCC2
:100273004212851280E5A0541F4480F5A053A01FAD
:050283001203A8AF12F8
:010288002253
:030000000200D526
:0C00D500787FE4F6D8FD75812002011C44
:1000E10002036CE493A3F8E493A34003F68001F2C6
:1000F10008DFF48029E493A3F85407240CC8C33320
:10010100C4540F4420C8834004F456800146F6DFEE
:10011100E4800B0102040810204080900394E47EE7
:10012100019360BCA3FF543F30E509541FFEE493E3
:10013100A360010ECF54C025E060A840B8E493A3AA
:10014100FAE493A3F8E493A3C8C582C8CAC583CAD5
:10015100F0A3C8C582C8CAC583CADFE9DEE780BE8D
:01039E00005E
:00000001FF
