:100260007580FFE5A0541F4480F5A053A01F758042
:10027000FFE5A0541F44E0F5A053A01F7580FFE5E3
:10028000A0541F44C0F5A053A01FE4F580E5A0547E
:0B0290001F44A0F5A053A01F02022392
:08034E0012026012000380FBA3
:0B033100C0F9A4B0999282F88090BF40
:0602F800C1000219000024
:10000300E4F508F509FF1201898B0A8A0B890CE4D0
:10001300FFAB0AAA0BA90C8F827583001201F6FEAF
:10002300740D2FF8A6060FBF08E7E5107012E5114F
:10003300700EE513700AE5147006D200F519F51A6F
:10004300300038900356E493F580E5A0541F4480B4
:10005300F5A053A01F051AE51A70020519C3941ED3
:10006300E519940040157580FFE5A0541F4480F501
:10007300A053A01FC200E4F519F51A7580FFE5A08F
:10008300541F44E0F5A053A01FE4F5097580FFE574
:10009300A0541F44E0F5A053A01FAF08A8077401A4
:1000A300088002C333D8FCF580E5A0541F44C0F593
:1000B300A053A01F740D2509F8E690033193F5159D
:1000C300F580E5A0541F44E0F5A053A01F1203459B
:1000D30005080509E509C3940840B1E4F508F5806E
:1000E300E5A0541F44C0F5A053A01F7580FFE5A0F1
:0900F300541F44E0F5A053A01FC6
:0100FC0022E1
:0E03070080828486888A8C81838587898B8D8D
:0802FE000629020305090509A8
:1002E500E4FEC297EF1392A3EFC313FFD2970EBE9E
:0202F50008F00F
:0102F70022E4
:1002D100C29300C29700D293001202E5AF05120249
:0402E100E5C29322BD
:10029B00E4FDC29300C29700D293001202E5E4FF83
:1002AB00C297EDC313FD30A303430580D2970FBF55
:1002BB0008EEC29300C293C29700D29700C2A3006C
:0502CB00D2A300AF0505
:0102D000220B
:100189007BFF7A03790EE4FC1201DDFF12029B74F6
:10019900162CF8A607740129F9E43AFA0CBC03E80D
:1001A900E518C4540FF521E518540FF52275230AF3
:1001B900E517C4540FF524E517540FF52575260ADC
:1001C900E516C4540FF527E516540FF5287B007A78
:0301D90000792189
:0101DC002200
:10022300E4FD7F8E1202D1900307E493FFE52DC412
:1002330054F0452EFD1202D1A3E493FFE52BC454E1
:10024300F0452CFD1202D1A3E493FFE529C454F039
:0D025300452AFD1202D17D807F8E0202D16E
:08033C007FC37E8ADEFEDFFCB8
:010344002296
:0D031500007F047ECD7DBBDDFEDEFCDFFA47
:0103220022B8
:080345007F067E5DDEFEDFFC99
:01034D00228D
:0D032300007F087E9A7D7ADDFEDEFCDFFAA9
:0103300022AA
:01035600FEA8
:030000000200FDFE
:0C00FD00787FE4F6D8FD75812E020144E6
:1001DD00BB010689828A83E0225002E722BBFE0220
:0901ED00E32289828A83E4932253
:1001F600BB010CE58229F582E5833AF583E02250BE
:1002060006E92582F8E622BBFE06E92582F8E22207
:0D021600E58229F582E5833AF583E4932221
:1001090002034EE493A3F8E493A34003F68001F2BB
:1001190008DFF48029E493A3F85407240CC8C333F7
:10012900C4540F4420C8834004F456800146F6DFC6
:10013900E4800B01020408102040809002F8E47E5C
:10014900019360BCA3FF543F30E509541FFEE493BB
:10015900A360010ECF54C025E060A840B8E493A382
:10016900FAE493A3F8E493A3C8C582C8CAC583CAAD
:10017900F0A3C8C582C8CAC583CADFE9DEE780BE65
:0103060000F6
:00000001FF
