:030003000200C830
:1000C800C0E0C0F0C083C082C0D075D000C000C0FE
:0D00D80001C002C003C004C005C006C0077F
:1000E500750805AF081508EF600A1200167FE812BB
:0400F500019980EFFE
:1000F900D007D006D005D004D003D002D001D0005B
:0B010900D0D0D082D083D0F0D0E03204
:03001300020114D3
:10011400C0E0C0F0C083C082C0D075D000C000C0B1
:0D01240001C002C003C004C005C006C00732
:10013100750C05AF0C150CEF600A12006F7FE81209
:04014100019980EFB1
:10014500D007D006D005D004D003D002D001D0000E
:0B015500D0D0D082D083D0F0D0E032B8
:100160007580FFE5A0541F4480F5A053A01F758043
:10017000FFE5A0541F44C0F5A053A01F7580FFE504
:10018000A0541F44E0F5A053A01FE4F580E5A0545F
:090190001F44A0F5A053A01F229A
:0F01AA00120160D2A8D288D2AAD28AD2AF80F432
:0801B9000102040810110A0400
:100016007580FFE5A0541F4480F5A053A01FE4F5AA
:1000260009E5099001B993750A00F50BF580E5A07D
:10003600541F4480F5A053A01F7F4012019975807C
:10004600FFE5A0541F4480F5A053A01F7F40120176
:10005600990509E509C3940540C77580FFE5A054D5
:080066001F4480F5A053A01F08
:01006E00226F
:10006F007580FFE5A0541F4480F5A053A01FE4F551
:10007F000DE50D9001BE93750E00F50FF580E5A00F
:10008F00541F4480F5A053A01F7F40120199758023
:10009F00FFE5A0541F4480F5A053A01F7F4012011D
:1000AF0099050DE50DC3940340C77580FFE5A05476
:0800BF001F4480F5A053A01FAF
:0100C7002216
:10019900AE071FEE600A7E027DEFDDFEDEFC80F019
:0101A9002233
:03000000020006F5
:0C000600787FE4F6D8FD75810F0201AA96
:00000001FF
