:100440007580FFE5A0541F44E0F5A053A01F758000
:10045000FFE5A0541F44C0F5A053A01F7580FFE521
:10046000A0541F4480F5A053A01FE4F580E5A054DC
:090470001F44A0F5A053A01F22B7
:1004E9001204401204D412053E1204A31204791214
:0404F900036580F225
:0B053300C0F9A4B0999282F88090FFFC
:0D04FD0008080A0A0A0A0A0A0A0A01100081
:10047900E514B4C7241203DB8F10E51075F064840A
:10048900F50DE51075F06484E5F075F00A84F50E54
:0A049900E51075F00A8485F00F22CB
:10036500E4F5127580FFE5A0541F44E0F5A053A005
:100375001FAF12A8077401088002C333D8FCF580AB
:10038500E5A0541F44C0F5A053A01F74082512F81A
:10039500E690053393F511E512B4050353117F85F6
:1003A5001180E5A0541F44E0F5A053A01F12054895
:1003B5000512E512C3940840AA7580FFE5A0541FF5
:1003C50044E0F5A053A01F7580FFE5A0541F44C06D
:0503D500F5A053A01F7C
:0103DA002200
:0600030000007F21DFFE7A
:0100090022D4
:0605480000007F93DFFEBE
:01054E00228A
:0E05240000007F057E907D47DDFEDEFCDFFAE5
:0105320022A6
:03050A00011400D9
:03000B00020511DA
:10051100C0E0C0D00514E514B4C803751400D0D0F0
:03052100D0E032F5
:1004D400438E805389F0758A20758CD1C28DD28C5D
:0504E400D2A9D2AF22F5
:1003DB00E4F511F51275D901F5D8F5F9F5E9F51331
:1003EB00D290120003C2901200030513E513C394BD
:1003FB000840EDD2DE309107E5F9D3944040F6C2C8
:10040B00DEE5F9D394404005C2DF7F0022AFF9EF60
:10041B00ADE9F511EDF512AC11E41202117B047A82
:10042B00E7798C783C120106E4FBFAF9784012006C
:04043B001512024A4A
:01043F00229A
:03050D000115E8ED
:1004BE00E4F511C2C220B20B12052420B20575114B
:0504CE000180F8AF11F0
:0104D3002206
:09053E001204BEBF010385101573
:010547002291
:1004A300E510D3951540057580FE80037580FFE543
:0B04B300A0541F4480F5A053A01F229E
:10000E000202B6E86480F8E933E83360110460F068
:10001E00ED33EC337009E8FCE9FDEAFEEBFF220458
:10002E0060DED3EB9FEA9EE99DE8C2E78CF0C2F753
:10003E0095F0400CE8CCF8E9CDF9EACEFAEBCFFB1F
:10004E0012028185D0F05804700320D5B3E80470F5
:10005E00075002B2D50202C092D5EC0460F7E4CC90
:10006E00C0E0C398F8603B94186008400DD0E0FBE8
:10007E00020298E4FBFAC9FC8028E830E406E4C9E1
:10008E00FBE4CAFCE830E305E4C9CACBFCE854073C
:10009E006010F8C3E913F9EA13FAEB13FBEC13FC47
:1000AE00D8F130F52FC3E49CFCEF9BFFEE9AFEEDEA
:1000BE0099FDD0E0FBEF4E4D4C701222DB03020295
:1000CE00BDEC2CFCEF33FFEE33FEED33FDED30E7F0
:1000DE00EB020298EF2BFFEE3AFEED39FDD0E0FB7E
:1000EE0050130BBB00030202C0ED13FDEE13FEEF27
:0800FE0013FFEC13FC02029851
:10010600EC4D6011E8497017ED33EC3304600DE4F3
:10011600FCFFFEFD22E933E8330470F80202B61252
:10012600028158046009E4CC248150062850090253
:1001360002C02840030202BDC0E0EB4A7044B98009
:1001460006D0E0FB0202ACEF4E701CBD8008EBFF50
:10015600EAFEE9FD80EBE98DF0A4FEE5F00201EF91
:10016600E9CDF9EAFEEBFFEF89F0A4FCE5F0CE89D4
:10017600F0A42EFFE435F0CD89F0A42DFEE435F091
:100186008067EF4E7005BD80D780C3EF8BF0A4ACBF
:10019600F0EE8BF0A42CFCE435F0F8EF8AF0A42CFA
:1001A600E5F038FCE433CB8DF0A42CFCE5F03BF80D
:1001B600EE8AF0A42CFCE5F038F8E433CF89F0A4FD
:1001C6002CFCE5F038CF3400CE89F0A42FFFE5F003
:1001D6003EFEE433C98DF0A42EFEE5F039CD8AF05B
:1001E600A42FFFE5F03EFEE43DFD33D0E0FB5007D3
:1001F6000BBB000F0202C0EC2CFCEF33FFEE33FE0C
:06020600ED33FD02029839
:10020C0075F020800E75F010800575F0087D007E6D
:10021C00007F003392D530D5031202CBEC33401063
:10022C00EF33FFEE33FEED33FDEC33FCD5F0ED2276
:0E023C00E5F0247EA2D513CC92E7CDCEFF22B2
:10024A00EDD2E7CD33EC3392D524814006E4FFFEAC
:10025A00FDFC22FCE4CFCECDCC24E0501174FF800B
:10026A00EDC3CC13CCCD13CDCE13CECF13CF0470A8
:07027A00F030D5DE0202CBDB
:10028100E9D2E7C933E833F892D5EDD2E7CD33ECC3
:0702910033FC5002B2D5223C
:10029800EC30E7100FBF000C0EBE00080DBD0004C7
:1002A8000BEB6014A2D5EB13FCED92E7FD2274FF73
:1002B800FCFDFEFF22E480F8A2D574FF13FC7D80CC
:0302C800E480EFE0
:030000000202D920
:0C02D900787FE4F6D8FD75811502032043
:0E02CB00C3E49FFFE49EFEE49DFDE49CFC2244
:1002E5000204E9E493A3F8E493A34003F68001F242
:1002F50008DFF48029E493A3F85407240CC8C3331A
:10030500C4540F4420C8834004F456800146F6DFE8
:10031500E4800B01020408102040809004FDE47E77
:10032500019360BCA3FF543F30E509541FFEE493DD
:10033500A360010ECF54C025E060A840B8E493A3A4
:10034500FAE493A3F8E493A3C8C582C8CAC583CACF
:10035500F0A3C8C582C8CAC583CADFE9DEE780BE87
:0105100000EA
:00000001FF
