:100CE4007580FFE5A0541F4480F5A053A01F7580B4
:100CF400FFE5A0541F44C0F5A053A01F7580FFE575
:100D0400A0541F44E0F5A053A01FE4F580E5A054CF
:100D14001F44A0F5A053A01FE4F580E5A0541F4490
:0C0D2400A0F5A053A01F120D30020D45D9
:0B0D5500120CE4120800120C7880F869
:100B880001130001110001100001120002150000FC
:030B980001140045
:100B0500C2C4D2C2D2B5D2B420B3037F012220B26F
:100B1500037F022220B1037F032220B0037F04223A
:100B2500D2C4C2C2D2B5D2B420B3037F052220B24B
:100B3500037F062220B1037F072220B0037F08220E
:100B4500D2C4D2C2C2B5D2B420B3037F092220B227
:100B5500037F0A2220B1037F0B2220B0037F0C22E2
:100B6500D2C4D2C2D2B5C2B420B3037F0D2220B203
:100B7500037F0E2220B1037F0F2220B0037F1022B6
:030B85007F0022CC
:100C0A00120B05E51214601814603014605724039F
:100C1A00705BEF6058F514E4F515F51675120122AC
:100C2A00EFB514150516E51670020515C39402E50D
:100C3A00159400403875120222802FEFB5141E0554
:100C4A0016E51670020515C39464E5159400401D57
:100C5A00751001E5142410F513751203227511019C
:0D0C6A008514138005EF65146003E4F51296
:010C7700225A
:100D4500E4F512F515F516F514F513F511F5102260
:0B0D6000C0F9A4B0999282F88090FFC7
:0A0B9B0008080A0A0A0A0A0A0A0AF0
:060D6B0000007F93DFFE93
:010D7100225F
:10080000E51170030208BFE4F511E51314B41000FC
:1008100040030208BF90082375F003A4C58325F0A8
:10082000C5837302085302085802085D0208620279
:10083000086702086C020871020879020881020840
:10084000890208910208990208A10208A90208B1C8
:100850000208B9750E0A803C750E0A803F750E0AB3
:100860008042750E0A8045750E0A8048750E0A8012
:100870004B750E0A750F078046750E0A750F0880B6
:100880003E750E0A750F098036750E01E4F50F806E
:100890002E750E01750F018026750E01750F0280F1
:1008A0001E750E01750F038016750E01750F0480FD
:1008B0000E750E01750F058006750E01750F06E5A4
:1008C000107003020976E4F510E51324EFB410006C
:1008D00040030209769008E375F003A4C58325F070
:1008E000C5837302091302091802091D02092202B5
:1008F000092702092C02093102093802093F0209BD
:100900004602094D02095402095B020962020969A3
:10091000020970750E018038750E01803A750E015E
:10092000803C750E02803E750E028040750E02807E
:1009300042750E02750F0322750E02750F042275A3
:100940000E02750F0522750E02750F0622750E0236
:10095000750F0722750E02750F0822750E02750FAE
:100960000922750E03E4F50F22750E03750F01229F
:07097000750E03750F022252
:100C7800E4FEEEC394087480948050437580FFE5C9
:100C8800A0541F44E0F5A053A01FA80674010880D3
:100C980002C333D8FCF580E5A0541F44C0F5A05327
:100CA800A01F74082EF8E6900D6093FDF580E5A06E
:100CB800541F44E0F5A053A01F120D6B0E80B375AE
:100CC80080FFE5A0541F44E0F5A053A01F7580FFE6
:0B0CD800E5A0541F44C0F5A053A01F6E
:010CE30022EE
:100BA50002220000C10A02240000C10B0226000037
:100BB500C10C02280000C10D022A0000C10E022C42
:100BC5000000C10F022E0000C10002300000C1016B
:100BD50002320000C10202360000C10302380000E3
:100BE500C104023A0000C105023C0000C106023EF4
:100BF5000000C10702400000C10802420000C1090F
:040C050002340000B5
:03000B0002097770
:10097700C0E0C0F0C083C082C0D075D000C000C046
:1009870001C002C003C004C005C006C007300A0882
:100997000523E52370020522300B080525E52570A0
:1009A700020524300C080527E52770020526300DBF
:1009B700080529E52970020528300E08052BE52BC7
:1009C7007002052A300F08052DE52D7002052C3021
:1009D7000008052FE52F7002052E3001080531E5C7
:1009E70031700205303002080533E53370020532F5
:1009F7003003080537E53770020536300408053936
:100A0700E53970020538300508053BE53B700205FE
:100A17003A300608053DE53D7002053C30070805FC
:100A27003FE53F7002053E3008080541E541700289
:100A370005403009080543E543700205420535E5E1
:100A47003570020534C3940AE534940040097534BF
:100A570000753500120C0AD007D006D005D004D097
:100A670003D002D001D000D0D0D082D083D0F0D034
:020A7700E0326B
:100D3000438E805389F0758A20758CD1C28DD28CF8
:050D4000D2A9D2AF2290
:03000000020A7978
:0C0A7900787FE4F6D8FD758143020AC0C6
:100A8500020D55E493A3F8E493A34003F68001F225
:100A950008DFF48029E493A3F85407240CC8C33372
:100AA500C4540F4420C8834004F456800146F6DF41
:100AB500E4800B0102040810204080900B88E47E3E
:100AC500019360BCA3FF543F30E509541FFEE49336
:100AD500A360010ECF54C025E060A840B8E493A3FD
:100AE500FAE493A3F8E493A3C8C582C8CAC583CA28
:100AF500F0A3C8C582C8CAC583CADFE9DEE780BEE0
:010C090000EA
:00000001FF
