:100326007580FFE5A0541F4480F5A053A01F75807B
:10033600FFE5A0541F44E0F5A053A01F7580FFE51C
:10034600A0541F44C0F5A053A01FE4F580E5A054B7
:0B0356001F44A0F5A053A01F0202E905
:1003EB001203261203971200C5120434120447801D
:0103FB00F50C
:0B042900C0F9A4B0999282F88090BF47
:1000C500E4F508F509FF1202958B0A8A0B890CE401
:1000D500FFAB0AAA0BA90C8F82758300120187FE5C
:1000E500740D2FF8A6060FBF08E77580FFE5A0542D
:1000F5001F44E0F5A053A01FE4F5097580FFE5A0B6
:10010500541F44E0F5A053A01FAF08A807740108C9
:100115008002C333D8FCF580E5A0541F44C0F5A088
:1001250053A01F740D2509F8E690042993F515F5DC
:1001350080E5A0541F44E0F5A053A01F120450050C
:10014500080509E509C3940840B1E4F508F580E51B
:10015500A0541F44C0F5A053A01F7580FFE5A0540F
:080165001F44E0F5A053A01FA8
:01016D00226F
:0E040D0080828486888A8C81838587898B8D86
:08043E0006210203050905096E
:1003D800E4FEC297EF1392A3EFC313FFD2970EBEAA
:0203E80008F01B
:0103EA0022F0
:1003C400C29300C29700D293001203D8AF05120360
:0403D400D8C29322D6
:10036100E4FDC29300C29700D293001203D8E4FFC8
:10037100C297EDC313FD30A303430580D2970FBF8E
:1003810008EEC29300C293C29700D29700C2A300A5
:05039100D2A300AF053E
:010396002244
:100295007BFF7A047914E4FC12016EFF120361748A
:1002A500162CF8A607740129F9E43AFA0CBC03E800
:1002B500E518C4540FF519E518540FF51A751B0AFE
:1002C500E517C4540FF51CE517540FF51D751E0AE7
:1002D500E516C4540FF51FE516540FF5207B007A7B
:0302E50000791984
:0102E80022F3
:1002E900E4FD7F8E1203C490040DE493FFE525C459
:1002F90054F04526FD1203C4A3E493FFE523C45437
:10030900F04524FD1203C4A3E493FFE521C454F08E
:0D0319004522FD1203C47D807F8E0203C4C7
:080447007FC37E8ADEFEDFFCAC
:01044F00228A
:0D041B00007F047ECD7DBBDDFEDEFCDFFA40
:0104280022B1
:080450007F067E5DDEFEDFFC8D
:010458002281
:1003FC00C2C220B20912041B20B2037F01227F006B
:01040C0022CD
:0A0434001203FCBF010312000322B3
:10039700759850438E40538EFE53890F758BC775E2
:0703A7008DFEC2ABD28E22D5
:1003AE0012016E6010F5993099FDC299740129F908
:0503BE00E43AFA80EBB7
:0103C3002217
:100003001202958B088A09890AE4FFAB08AA09A999
:100013000A8F82758300120187FE740B2FF8A606E0
:100023000FBF08E775275475286975296D752A650B
:10003300752B3AAB08AA09A90A12016E75F00AA436
:10004300FFAEF07C007D0A1201B4EF2430F52C9052
:10005300000112018775F00A84E5F02430F52D754F
:100063002E3A90000312018775F00AA4FFAEF07CCC
:10007300007D0A1201B4EF2430F52F900004120121
:100083008775F00A84E5F02430F53075313A900035
:100093000612018775F00AA4FFAEF07C007D0A12F8
:1000A30001B4EF2430F53290000712018775F00A8E
:1000B30084E5F02430F533E4F534FB7A0079270244
:0200C30003AE8A
:03000000020209F0
:0C020900787FE4F6D8FD758134020250C5
:10016E00BB010689828A83E0225002E722BBFE028F
:09017E00E32289828A83E49322C2
:10018700BB010CE58229F582E5833AF583E022502D
:1001970006E92582F8E622BBFE06E92582F8E22277
:0D01A700E58229F582E5833AF583E4932291
:1001B400BC000BBE0029EF8DF084FFADF022E4CC2F
:1001C400F875F008EF2FFFEE33FEEC33FCEE9DECF8
:1001D400984005FCEE9DFE0FD5F0E9E4CEFD22ED3E
:1001E400F8F5F0EE8420D21CFEADF075F008EF2F88
:1001F400FFED33FD4007985006D5F0F222C398FD79
:050204000FD5F0EA2215
:100215000203EBE493A3F8E493A34003F68001F211
:1002250008DFF48029E493A3F85407240CC8C333EA
:10023500C4540F4420C8834004F456800146F6DFB9
:10024500E4800B010204081020408090043EE47E07
:10025500019360BCA3FF543F30E509541FFEE493AE
:10026500A360010ECF54C025E060A840B8E493A375
:10027500FAE493A3F8E493A3C8C582C8CAC583CAA0
:10028500F0A3C8C582C8CAC583CADFE9DEE780BE58
:0104460000B5
:00000001FF
