:1005AA007580FFE5A0541F44E0F5A053A01F758095
:1005BA00FFE5A0541F4480F5A053A01F7580FFE5F6
:1005CA00A0541F44C0F5A053A01F7580FFE5A05496
:1005DA001F44A0F5A053A01F7580FFE5A0541F4437
:0C05EA00A0F5A053A01F12082A0208155B
:1007AC001205AA1207431206E712078D12076C12E4
:0D07BC0006B01204F71204F71204F780E6ED
:040678000229000053
:10063C0012084F7F9012071712083D7F01120717FF
:10064C0012083D12087A12084F7F911207171208F0
:10065C003D1207C98F2412083D12087AAC24E4120B
:0C066C0001CEE4FBFA797F7843020127FD
:1006E70012063C8F238E228D218C20C3E52694642D
:1006F700E52594004019E4FFFE7D487C42AB23AA20
:0F07070022A921A82012001E1202028E298F2A79
:0107160022C0
:0407E600D2A07F0519
:1007EA00000000000000000000000000000000AE51
:0607FA00071FEE70EB2268
:0F084F00D2A11207E6C2A17F051207EAC2A022BA
:0C087A00C2A11207E6D2A17F050207EA26
:02071700AD072C
:10071900E4FCC2A07F051207EAED30E704D2A1800C
:1007290002C2A17F051207EAD2A0ED25E0FD7F05EF
:090739001207EA0CBC08DBC2A0A7
:010742002294
:1007C900E4FC1207E6ED25E0FD30A103430501C273
:0C07D900A07F051207EA0CBC08E8AF0581
:0107E50022F1
:10083D001207E6A2A1E433FDC2A07F051207EAAFBD
:01084D0005A5
:01084E002287
:10000300C2A0EF24FF92A17F051207EA1207E6C2FE
:08001300A0D2A17F050207EA5B
:0E085E0000007F057E907D47DDFEDEFCDFFAA8
:01086C002269
:0608860000007F93DFFE7D
:01088C002249
:03067C00012FFF4C
:10076C00E52C5401146008047008752FFE80037585
:10077C002FFD852F80E5A0541F4480F5A053A01FAA
:01078C00224A
:0D086D00C0F9A4B0999282F880908E86FFA9
:10067F0008180A0C0C0C0C0C0C0C08100B0C0C0CA6
:0E068F000C0C0C0C08080C0C0C0C0C0C0C0CBD
:10031C00E52BD3940A4013E52B75F00A84F519E507
:10032C002B75F00A8485F01A801FE52BD3940040BE
:10033C000EE52B940A500875190C852B1A800AE5CA
:10034C002B700675190C751A0CC3E52E9410E52D3F
:10035C00648094A74024AE2DAF2E7C277D10120212
:10036C00D88F1BAE2DAF2E7C277D101202D87E03AA
:10037C007FE8CFCDCFCECCCE8024C3E52E94E8E55C
:10038C002D648094834033E52E9410E52D64809485
:10039C00A75027751B0CAE2DAF2E7C037DE81202E7
:1003AC00D88F1CAE2DAF2E7C037DE81202D87E00B8
:1003BC007F64CFCDCFCECCCE8027C3E52E9464E521
:1003CC002D648094804036E52E94E8E52D6480946D
:1003DC0083502A751B0C751C0CAE2DAF2E7C007D2A
:1003EC00641202D88F1DAE2DAF2E7C007D641202DC
:1003FC00D87E007F0ACFCDCFCECCCE802AC3E52EBF
:10040C00940AE52D648094804030E52E9464E52DAB
:10041C00648094805024751B0C751C0C751D0CAEDF
:10042C002DAF2E7C007D0A1202D88F1EAE2DAF2E62
:10043C007C007D0A1202D88D1F22C3E52D648094A6
:10044C0080401BE52E940AE52D64809480500F7536
:0F045C001B0C751C0C751D0C751E0C852E1F229C
:10055600E52BD3940A4013E52B75F00A84F511E5D3
:100566002B75F00A8485F012801FE52BD39400408A
:100576000EE52B940A500875110C852B12800AE59E
:100586002B700675110C75120CAE29AF2A7C007DF6
:100596000A1202838F16AE29AF2A7C007D0A120248
:0405A600838D172208
:1006B000E52C5401FF14601904702B12031CE4FB99
:1006C00074182BF8E6FF74082BF8A6070BBB08F08C
:1006D00022120556E4FB74102BF8E6FF74082BF881
:0606E000A6070BBB08F0A9
:0106E60022F1
:1004F700E4F5207580FFE5A0541F44E0F5A053A064
:100507001FAF20A8077401088002C333D8FCF58009
:10051700E5A0541F44C0F5A053A01F74082520F878
:10052700E690086D93F521E52C30E008E520B40648
:100537000353217F852180E5A0541F44E0F5A05394
:0E054700A01F1208860520E520C3940840A5D9
:010555002283
:06069D00012C00012B00FE
:1005F600E4F520C2B2D2B320C20B12085E20C205B7
:1006060075200180F820B50B12085E20B50575200F
:100616000280F8D2B2C2B320C20B12085E20C20515
:1006260075200380F820B50B12085E20B5057520ED
:050636000480F8AF2074
:01063B00229C
:100743001205F6EF24FE600E14600F1460102403EC
:100753007016752B0922752B0D22752B0822E52C9B
:08076300045401F52C752B0C68
:01076B00226B
:0806A3000227000002250000FF
:03001B00020800D8
:10080000C0E00528E528700205270526E5267002C8
:050810000525D0E032D7
:10081500538EBF53890F758B18758DFCC28FD28E81
:05082500D2ABD2AF22AE
:0406AB00022D00001C
:10082A00538E7F5389F0438905E4F58AF58CC28D8E
:03083A00D28C223B
:10078D00C3E52894E8E52794034013AF8CEFAD8AB9
:0F079D00F52DEDF52EE4F527F528F58CF58A22DC
:10001E00EC4D6011E8497017ED33EC3304600DE4DC
:10002E00FCFFFEFD22E933E8330470F802026E1283
:10003E00023958046009E4CC248150062850090284
:10004E000278284003020275C0E0EB4A7044B98082
:10005E0006D0E0FB020264EF4E701CBD8008EBFF81
:10006E00EAFEE9FD80EBE98DF0A4FEE5F002010762
:10007E00E9CDF9EAFEEBFFEF89F0A4FCE5F0CE89BD
:10008E00F0A42EFFE435F0CD89F0A42DFEE435F07A
:10009E008067EF4E7005BD80D780C3EF8BF0A4ACA8
:1000AE00F0EE8BF0A42CFCE435F0F8EF8AF0A42CE3
:1000BE00E5F038FCE433CB8DF0A42CFCE5F03BF8F6
:1000CE00EE8AF0A42CFCE5F038F8E433CF89F0A4E6
:1000DE002CFCE5F038CF3400CE89F0A42FFFE5F0EC
:1000EE003EFEE433C98DF0A42EFEE5F039CD8AF044
:1000FE00A42FFFE5F03EFEE43DFD33D0E0FB5007BC
:10010E000BBB000F020278EC2CFCEF33FFEE33FE3C
:06011E00ED33FD0202506A
:10012400020278EC5D046005E85904700302026E73
:10013400120239580460F6EC4860F2EC7004FDFEDB
:10014400FF22C860DB2481C85009C39860025006AE
:100154000202759850CAF582E9294B4A7005AB82B0
:1001640002026475F0007C1A7880C3EF9BEE9AED6E
:1001740099400DC3EF9BFFEE9AFEED99FDE842F026
:10018400DC23ACF0D0E0FFD0E0FED0E0FDAB822079
:10019400E7101BEB60BAEC2CFCEF33FFEE33FEED03
:1001A40033FD020250E803F830E705C0F075F000B3
:1001B400EF2FFFEE33FEED33FD40B830E7C280AAE7
:1001C40075F020800E75F010800575F0087D007EB6
:1001D400007F003392D530D50312030EEC33401068
:1001E400EF33FFEE33FEED33FDEC33FCD5F0ED22BF
:0E01F400E5F0247EA2D513CC92E7CDCEFF22FB
:10020200EDD2E7CD33EC3392D524814006E4FFFEF4
:10021200FDFC22FCE4CFCECDCC24E0501174FF8053
:10022200EDC3CC13CCCD13CDCE13CECF13CF0470F0
:07023200F030D5DE02030EDF
:10023900E9D2E7C933E833F892D5EDD2E7CD33EC0B
:0702490033FC5002B2D52284
:10025000EC30E7100FBF000C0EBE00080DBD00040F
:100260000BEB6014A2D5EB13FCED92E7FD2274FFBB
:10027000FCFDFEFF22E480F8A2D574FF13FC7D8014
:03028000E480EF28
:0300000002046B8C
:0C046B00787FE4F6D8FD75812F0204B202
:10028300BC000BBE0029EF8DF084FFADF022E4CC5F
:10029300F875F008EF2FFFEE33FEEC33FCEE9DEC28
:1002A300984005FCEE9DFE0FD5F0E9E4CEFD22ED6E
:1002B300F8F5F0EE8420D21CFEADF075F008EF2FB8
:1002C300FFED33FD4007985006D5F0F222C398FDA9
:0502D3000FD5F0EA2246
:1002D800C2D5EC30E709B2D5E4C39DFDE49CFCEE41
:1002E80030E715B2D5E4C39FFFE49EFE120283C334
:1002F800E49DFDE49CFC800312028330D507C3E42F
:060308009FFFE49EFE22AF
:0E030E00C3E49FFFE49EFEE49DFDE49CFC2200
:100477000207ACE493A3F8E493A34003F68001F2E8
:1004870008DFF48029E493A3F85407240CC8C33386
:10049700C4540F4420C8834004F456800146F6DF55
:1004A700E4800B0102040810204080900678E47E67
:1004B700019360BCA3FF543F30E509541FFEE4934A
:1004C700A360010ECF54C025E060A840B8E493A311
:1004D700FAE493A3F8E493A3C8C582C8CAC583CA3C
:1004E700F0A3C8C582C8CAC583CADFE9DEE780BEF4
:0106AF00004A
:00000001FF
