:1003E1007580FFE5A0541F4480F5A053A01F7580C0
:1003F100FFE5A0541F44E0F5A053A01F7580FFE561
:10040100A0541F44C0F5A053A01FE4F580E5A054FB
:0B0411001F44A0F5A053A01F0203A48D
:0804BB001203E112010680FBAF
:0B049500C0F9A4B0999282F88090BFDB
:10010600E4F508F509FF1202BE8B0A8A0B890CE496
:10011600FFAB0AAA0BA90C8F8275830012025DFE43
:10012600740D2FF8A6060FBF08E77B007A00790D3D
:100136001200037580FFE5A0541F44E0F5A053A00C
:100146001FE4F5097580FFE5A0541F44E0F5A053B0
:10015600A01FAF08A8077401088002C333D8FCF5B6
:1001660080E5A0541F44C0F5A053A01F740D2509B7
:10017600F8E690049593F515F580E5A0541F44E044
:10018600F5A053A01F1204B205080509E509C3949A
:100196000840B1E4F508F580E5A0541F44C0F5A079
:1001A60053A01F7580FFE5A0541F44E0F5A053A09F
:0101B6001F29
:0101B7002225
:0E04790080828486888A8C81838587898B8D1A
:0804A000062301080202020913
:10046600E4FEC297EF1392A3EFC313FFD2970EBE1B
:0204760008F08C
:010478002261
:10045200C29300C29700D29300120466AF05120441
:0404620066C29322B9
:10041C00E4FDC29300C29700D29300120466E4FF7D
:10042C00C297EDC313FD30A303430580D2970FBFD2
:10043C0008EEC29300C293C29700D29700C2A300E9
:05044C00D2A300AF0582
:010451002288
:1002BE007BFF7A047980E4FC120244FF12041C7462
:1002CE00162CF8A607740129F9E43AFA0CBC03E8D7
:1002DE00E518C4540FF51BE518540FF51C751D0ACF
:1002EE00E517C4540FF51EE517540FF51F75200AB8
:1002FE00E516C4540FF521E516540FF5227B007A4E
:03030E0000791B58
:0103110022C9
:1003A400E4FD7F8E120452900479E493FFE527C4A0
:1003B40054F04528FD120452A3E493FFE525C454E8
:1003C400F04526FD120452A3E493FFE523C454F040
:0D03D4004524FD1204527D807F8E020452EC
:10031200E4FD7F8E12045290000612025DC454F076
:10032200FF90000712025D4FFD7F80120452900081
:100332000312025DC454F0FF90000412025D4FFDEF
:100342007F8212045290000112025DFF120244FEEB
:10035200C454F04FFD7F841204527D807F8E0204CC
:010362005248
:0804A9007FC37E8ADEFEDFFC4A
:0104B1002228
:0D048700007F047ECD7DBBDDFEDEFCDFFAD4
:010494002245
:0804B2007F067E5DDEFEDFFC2B
:0104BA00221F
:0304C30001020330
:1003630020B01112048712048712048720B005906D
:1003730004C5802620B11112048712048712048752
:1003830020B1059004C4801220B213120487120412
:100393008712048720B2079004C3E493FF227F00EF
:0103A3002237
:060003008B168A17891814
:100009001203638F1AE51A64017049AB16AA17A97E
:100019001890000112025DFF12024475F00AA42F24
:10002900F5190519E519C394184003E4F519E519FB
:1000390075F00A84AB16AA17A91812028AE5197570
:10004900F00A84AB16AA17A918900001E5F012026C
:100059009C120312E51A640260030200E9AB16AAB6
:1000690017A91890000312025D75F00AA4FF900009
:100079000412025D2FFF0FEFC3943C4042E4FF904E
:10008900000112025DFE12024475F00AA42EF51950
:100099000519E519C394184003E4F519E51975F034
:1000A9000A84AB16AA17A91812028AE51975F00A6B
:1000B90084AB16AA17A918900001E5F012029CEF6B
:1000C90075F00A84AB16AA17A91890000312029CAE
:1000D900EF75F00A84900004E5F012029C120312F5
:1000E900E51AB40317AB16AA17A918900006E4126B
:0C00F900029C900007E412029C1203120B
:0101050022D7
:030000000201B842
:0C01B800787FE4F6D8FD7581280201FF75
:10024400BB010689828A83E0225002E722BBFE02B8
:09025400E32289828A83E49322EB
:10025D00BB010CE58229F582E5833AF583E0225056
:10026D0006E92582F8E622BBFE06E92582F8E222A0
:0D027D00E58229F582E5833AF583E49322BA
:10028A00BB010689828A83F0225002F722BBFE0153
:02029A00F3224D
:10029C00F8BB010DE58229F582E5833AF583E8F098
:1002AC00225006E92582C8F622BBFE05E92582C844
:0202BC00F2222C
:1001C4000204BBE493A3F8E493A34003F68001F292
:1001D40008DFF48029E493A3F85407240CC8C3333C
:1001E400C4540F4420C8834004F456800146F6DF0B
:1001F400E4800B01020408102040809004A0E47EF7
:10020400019360BCA3FF543F30E509541FFEE493FF
:10021400A360010ECF54C025E060A840B8E493A3C6
:10022400FAE493A3F8E493A3C8C582C8CAC583CAF1
:10023400F0A3C8C582C8CAC583CADFE9DEE780BEA9
:0104A8000053
:00000001FF
