:10068A007580FFE5A0541F44E0F5A053A01F7580B4
:10069A00FFE5A0541F44C0F5A053A01FE4F580E570
:1006AA00A0541F44A0F5A053A01F7580FFE5A054D5
:0906BA001F4480F5A053A01F228B
:10073E0012068A1203C312045012076A1204DD1243
:07074E0004DD1204DD80EC64
:0B07AA00C0F9A4B0999282F88090FF83
:1007550003080A0A0A03130A0A0A080B0A0A0A0AFC
:040765000A0A0A0A68
:1003C3001205F68F198E188D178C16E4FFFE7DFA31
:1003D3007C43AB19AA18A917A8161200FBE4FBFA71
:1003E300F9784012000A1202DFAB07AA06C3EB94A6
:1003F30064EA9400402D7C007D641203608F087CC6
:10040300007D64AF03AE021203607E007F0ACFCD8E
:10041300CFCECCCE1203608F097C007D0AAF03AE32
:10042300028024E4F508FC7D64AF03AE021203608E
:100433007E007F0ACFCDCFCECCCE1203608F09AE24
:0C04430002AF037C007D0A1203608D0AEA
:01044F00228A
:100450001206408F198E188D178C16E4FFFE7DFA58
:100460007C43AB19AA18A917A8161200FBE4FBFAE3
:10047000F9784012000A1202DFAB07AA06C3EB9418
:1004800064EA9400402D7C007D641203608F137C2D
:10049000007D64AF03AE021203607E007F0ACFCD01
:1004A000CFCECCCE1203608F147C007D0AAF03AE9A
:1004B000028024E4F513FC7D64AF03AE02120360F6
:1004C0007E007F0ACFCDCFCECCCE1203608F14AE8C
:0C04D00002AF037C007D0A1203608D1552
:0104DC0022FD
:10076A0085080B85090C850A0D85131085141185DA
:03077A0015122233
:1004DD00E4F518F5167580FFE5A0541F44E0F5A06E
:1004ED0053A01F7580FFE5A0541F44C0F5A053A075
:1004FD001FAF18A8077401088002C333D8FCF5801C
:10050D00E5A0541F44C0F5A053A01F740B2516F889
:10051D00E69007AA93F517E5166003B40503531784
:10052D007F851780E5A0541F44E0F5A053A01F055B
:10053D00181207B50516E516C394084098E4F5188A
:10054D007580FFE5A0541F44E0F5A053A01F7580F2
:0C055D00FFE5A0541F44C0F5A053A01FF0
:01056900226F
:1005F60012078F7F901206C312077D7F011206C372
:1006060012077D12079E12078F7F911206C31207EB
:100616007D1206EFAC07E41202AB8F1D8E1C8D1BFC
:100626008C1A12077D12079EE4FBFA797F7843AF96
:0A0636001DAE1CAD1BAC1A0202043D
:1006400012078F7F901206C312077D7F031206C325
:1006500012077D12079E12078F7F911206C31207A1
:100660007D1206EFAC07E41202AB8F1D8E1C8D1BB2
:100670008C1A12077D12079EE4FBFA797F7843AF4C
:0A0680001DAE1CAD1BAC1A020204F3
:0607B50000007F93DFFE4F
:0107BB00221B
:04070C00D2A07F05F3
:10071000000000000000000000000000000000AE2B
:06072000071FEE70EB2242
:0F078F00D2A112070CC2A17F05120710C2A0222F
:0C079E00C2A112070CD2A17F05020710B7
:0206C300AD0781
:1006C500E4FCC2A07F05120710ED30E704D2A1803B
:1006D50002C2A17F05120710D2A0ED25E0FD7F051E
:0906E5001207100CBC08DBC2A0D6
:0106EE0022E9
:1006EF00E4FC12070CED25E0FD30A103430501C228
:0C06FF00A07F051207100CBC08E8AF0536
:01070B0022CB
:10077D0012070CA2A1E433FDC2A07F05120710AF32
:01078D000566
:01078E002248
:10072600C2A0EF24FF92A17F0512071012070CC288
:08073600A0D2A17F050207100B
:1000030002034BE86480F8E933E83360110460F0DD
:10001300ED33EC337009E8FCE9FDEAFEEBFF220463
:1000230060DED3EB9FEA9EE99DE8C2E78CF0C2F75E
:1000330095F0400CE8CCF8E9CDF9EACEFAEBCFFB2A
:1000430012031685D0F05804700320D5B3E804706A
:10005300075002B2D502035592D5EC0460F7E4CC05
:10006300C0E0C398F8603B94186008400DD0E0FBF3
:1000730002032DE4FBFAC9FC8028E830E406E4C956
:10008300FBE4CAFCE830E305E4C9CACBFCE8540747
:100093006010F8C3E913F9EA13FAEB13FBEC13FC52
:1000A300D8F130F52FC3E49CFCEF9BFFEE9AFEEDF5
:1000B30099FDD0E0FBEF4E4D4C701222DB0302039F
:1000C30052EC2CFCEF33FFEE33FEED33FDED30E766
:1000D300EB02032DEF2BFFEE3AFEED39FDD0E0FBF3
:1000E30050130BBB0003020355ED13FDEE13FEEF9C
:0800F30013FFEC13FC02032DC6
:1000FB00EC4D6011E8497017ED33EC3304600DE4FF
:10010B00FCFFFEFD22E933E8330470F802034B12C7
:10011B00031658046009E4CC2481500628500902C8
:10012B000355284003020352C0E0EB4A7044B980E8
:10013B0006D0E0FB020341EF4E701CBD8008EBFFC5
:10014B00EAFEE9FD80EBE98DF0A4FEE5F00201E4A7
:10015B00E9CDF9EAFEEBFFEF89F0A4FCE5F0CE89DF
:10016B00F0A42EFFE435F0CD89F0A42DFEE435F09C
:10017B008067EF4E7005BD80D780C3EF8BF0A4ACCA
:10018B00F0EE8BF0A42CFCE435F0F8EF8AF0A42C05
:10019B00E5F038FCE433CB8DF0A42CFCE5F03BF818
:1001AB00EE8AF0A42CFCE5F038F8E433CF89F0A408
:1001BB002CFCE5F038CF3400CE89F0A42FFFE5F00E
:1001CB003EFEE433C98DF0A42EFEE5F039CD8AF066
:1001DB00A42FFFE5F03EFEE43DFD33D0E0FB5007DE
:1001EB000BBB000F020355EC2CFCEF33FFEE33FE81
:0601FB00ED33FD02032DAF
:10020100020355EC5D046005E85904700302034BD9
:10021100120316580460F6EC4860F2EC7004FDFE1F
:10022100FF22C860DB2481C85009C39860025006D0
:100231000203529850CAF582E9294B4A7005AB82F4
:1002410002034175F0007C1A7880C3EF9BEE9AEDB2
:1002510099400DC3EF9BFFEE9AFEED99FDE842F048
:10026100DC23ACF0D0E0FFD0E0FED0E0FDAB82209B
:10027100E7101BEB60BAEC2CFCEF33FFEE33FEED25
:1002810033FD02032DE803F830E705C0F075F000F7
:10029100EF2FFFEE33FEED33FD40B830E7C280AA09
:1002A10075F020800E75F010800575F0087D007ED8
:1002B100007F003392D530D5031203B5EC334010E3
:1002C100EF33FFEE33FEED33FDEC33FCD5F0ED22E1
:0E02D100E5F0247EA2D513CC92E7CDCEFF221D
:1002DF00EDD2E7CD33EC3392D524814006E4FFFE17
:1002EF00FDFC22FCE4CFCECDCC24E0501174FF8076
:1002FF00EDC3CC13CCCD13CDCE13CECF13CF047013
:07030F00F030D5DE0203B55A
:10031600E9D2E7C933E833F892D5EDD2E7CD33EC2D
:0703260033FC5002B2D522A6
:10032D00EC30E7100FBF000C0EBE00080DBD000431
:10033D000BEB6014A2D5EB13FCED92E7FD2274FFDD
:10034D00FCFDFEFF22E480F8A2D574FF13FC7D8036
:03035D00E480EF4A
:0300000002056A8C
:0C056A00787FE4F6D8FD75811D0205B114
:10036000BC000BBE0029EF8DF084FFADF022E4CC81
:10037000F875F008EF2FFFEE33FEEC33FCEE9DEC4A
:10038000984005FCEE9DFE0FD5F0E9E4CEFD22ED90
:10039000F8F5F0EE8420D21CFEADF075F008EF2FDA
:1003A000FFED33FD4007985006D5F0F222C398FDCB
:0503B0000FD5F0EA2268
:0E03B500C3E49FFFE49EFEE49DFDE49CFC2259
:1005760002073EE493A3F8E493A34003F68001F256
:1005860008DFF48029E493A3F85407240CC8C33386
:10059600C4540F4420C8834004F456800146F6DF55
:1005A600E4800B0102040810204080900755E47E89
:1005B600019360BCA3FF543F30E509541FFEE4934A
:1005C600A360010ECF54C025E060A840B8E493A311
:1005D600FAE493A3F8E493A3C8C582C8CAC583CA3C
:1005E600F0A3C8C582C8CAC583CADFE9DEE780BEF4
:01076900008F
:00000001FF
